:100000006F00C02400000000EA020000EA020000C5
:10001000A9BDF9F3EA0200000000000000000000A2
:10002000EA020000EA0200000000000000000000F8
:10003000EA02000000000000EA02000000000000E8
:10004000EA020000EA020000EA020000D203000017
:10005000EA020000EA020000EA02000000000000DC
:10006000EA020000EA020000EA020000EA020000E0
:10007000EA020000EA020000EA020000EA020000D0
:10008000EA020000EA020000EA020000EA020000C0
:10009000EA020000EA020000EA020000EA020000B0
:1000A00003AF81C003A741C0938741C19306870076
:1000B000634A070683A601C11306804393D5360120
:1000C00013D8F60093D8B60013D3760093FFF6004A
:1000D0008D82F9891378E80193F8E8011373E3013D
:1000E000F98AB2953298B2983293B296138E41C77C
:1000F0006387C7036349E7058907239F07FEE39DDD
:10010000C7FF11CD631CEF00B747004083C627002F
:1001100093F6760F2381D70023A601C0050723A2FB
:10012000E1C08280E308D7F82390070023910700FD
:100130002392070023930700239407000507B107C4
:10014000239F07FEB5B703DE05000507B107239A15
:10015000C7FF035E0800239BC7FF03DE0800239C44
:10016000C7FF035E0300239DC7FF03DE0600239E37
:10017000C7FF139E1F00329E035E0E00239FC7FF22
:10018000B5B7011106CE22CC26CA4AC84EC623A84E
:10019000A1C0F327003093F777F773900730054736
:1001A000B744004023A6E1C083C724003744004081
:1001B0003A9493F7770F2381F4008347040037497B
:1001C0000040310993F7E70F2300F400890423105E
:1001D0000900F327003093E787087390073023A4C2
:1001E000E1C00145795723A2E1C05D3D93070006B8
:1001F0002310F900938741C1C20737470040C183EC
:10020000231CF700BA8725472383E700A1472380F3
:10021000F4008347040093E717002300F40083A74A
:10022000C1C0F5FFF2406244D2444249B24905617F
:100230008280B7F600E09846B7873B009387072691
:100240003E979C46998FE3CE07FE8280970100205F
:100250009381011B170102201301C1DA138541C0EC
:10026000938541C76377B500232005001105E36D31
:10027000B5FE1305000A938541C0138641C063FA99
:10028000C5008322050023A0550011059105E3EA6E
:10029000C5FE13058045938541C0138641C0638A1E
:1002A000C5008322050023A0550011059105E3EA4E
:1002B000C5FE93070000FD42739002BC89629382E1
:1002C000828873A00230970200009382A2D393E247
:1002D000320073905230B7F700E0054798C3930798
:1002E000C034739017347300203001A0B71700405A
:1002F00093870704930570052380B700130680FADF
:100300002380C70001000100372700408346578043
:1003100093F6F60EA302D780372700408546A30345
:10032000D78023800700010001002380B7002380CD
:10033000C700010001003717004093065014231432
:10034000D70023800700010001008280411106C60A
:10035000713FB71700409387470B9843F176FD161E
:10036000758F98C3B71700409387070A9843916623
:10037000558F98C3D146B7470040A381D70009479E
:100380002380E700130740042380E700938741C7D9
:10039000C20737470040C183231EF700BA870347CF
:1003A000170013670702A380E700B7E700E03707ED
:1003B000080023A0E7104165130505F0D933953DEA
:1003C0003705FF007D3BB5351305F00F5D3B9535D7
:1003D000DDB739713ECC06DE16DC1ADA1ED82AD615
:1003E0002ED432D236D03ACE42CA46C872C676C46D
:1003F0007AC27EC0B747004083C76700A18B89CB14
:1004000005457939B7470040130700062396E700F2
:10041000F250E2525253C2533255A25512568256EE
:100420007247E2475248C248324EA24E124F824FA4
:100430002161730020300000111111711117117723
:10044000711171717117717717111771171717776C
:080450007711777177177777B8
:00000001FF
