:100000006F00000A000000003E0100003E010000F9
:10001000A9BDF9F33E01000000000000000000004F
:100020003E0100003E010000000000000000000052
:100030003E010000000000003E0100000000000042
:100040003E0100003E0100003E0100003E010000B4
:100050003E0100003E0100003E01000000000000E3
:100060003E0100003E0100003E0100003E01000094
:100070003E0100003E0100003E0100003E01000084
:100080003E0100003E0100003E0100003E01000074
:100090003E0100003E0100003E0100003E01000064
:1000A000970100209381C13517010220130181F5CA
:1000B000138541C0938541C06377B50023200500B7
:1000C0001105E36DB5FE1305000A938541C0138643
:1000D00041C063FAC5008322050023A05500110525
:1000E0009105E3EAC5FE13058020938541C0138680
:1000F00041C0638AC5008322050023A05500110575
:100100009105E3EAC5FE93070000FD42739002BC2F
:1001100089629382828873A00230970200009382E2
:1001200062EE93E2320073905230B7F700E0054779
:1001300098C39307001A739017347300203001A0FE
:10014000B717004093870704930570052380B70015
:10015000130680FA2380C700010001003727004002
:100160008346578093F6F60EA302D78037270040C8
:100170008546A303D7802380070001000100238068
:10018000B7002380C7000100010037170040930625
:1001900050142314D700238007000100010082803F
:1001A000411106C6713FB71700409387470D98432A
:1001B000B7160040371600401367071098C3B717EB
:1001C00000409387070C98439386860D1308001010
:1001D0001367071098C337C71D00B7F700E0130770
:1001E00007131306C60C23A0060188473A958C47CF
:1001F000898DE3CE05FE2320060188473A958C477A
:08020000898DE3CE05FEC5B7B0
:00000001FF
