:100000006F10101300000000E0190000E01900005C
:10001000A9BDF9F3E0190000000000000000000095
:10002000E0190000E01900000000000000000000DE
:10003000E019000000000000E019000000000000CE
:10004000E0190000E019000002200000E0190000A3
:10005000E0190000E0190000E219000000000000B3
:10006000E0190000E0190000E0190000E0190000AC
:10007000E0190000E0190000E0190000E01900009C
:10008000E0190000E0190000E0190000E01900008C
:100090001A010020E0190000E0190000E01900003A
:1000A000011126CA4AC84EC637190040B7741F004E
:1000B000B719004022CC52C456C25AC006CE13040F
:1000C000F5FF1309C90C214A8D4A054B938404BCE2
:1000D0009389890D635C0400F2406244D244424932
:1000E000B249224A924A024B05618280B3675403A7
:1000F0002320490199C763846705130600028145DF
:1001000091A00146814513050002972000E0E78099
:10011000A0832685971000E0E7800033014623A0E6
:10012000490181450145972000E0E780E08111C445
:100130002685971000E0E78020317D1461BF0146DD
:10014000930500020145D1B7411122C406C62A8495
:1001500099E523110500B24022444101828089477C
:10016000E39BF5FE91476396F6021842B70700013C
:100170009387271A631FF700971000E0E780403647
:100180000945393F972000E0E78060DF2301040E36
:10019000D9B783D7C155FDFB239ED1541387C155D1
:1001A000E3D6D7FE3305F600034505009385270007
:1001B000BA952380A5008507E5B779713ACC37E772
:1001C00000403ECA8357470032D036CEC207C183B3
:1001D0001AD62AD42ED242C846C62312F700239E2E
:1001E000F1C283C6A1C30546639FC60A93F6870082
:1001F000A9C283D581C383D661C363FCD50237E826
:10020000004095451385C135310883D681C31383DA
:1002100016008606AA9683D60600239C61C2231088
:10022000D80003D381C383D661C36374D300FD15A3
:10023000E9FD858BA9C7B7E6004083C7060093F7A1
:10024000E70F2380F60083C741C3B1C723A801C2CB
:10025000239601C2C18B1306600299C31306600383
:10026000B7E70040A380C7008947B7E60040238D69
:10027000F1C283C7060093E787012380F60032535B
:10028000225592550256F2466247D2474248B2483A
:10029000456173002030B7E70040A3800700954711
:1002A000238DF1C2E9BF09466396C61093F6470055
:1002B0008DC637E50040154631059385C13583D697
:1002C000C1C27D1693881600239611C3835805007A
:1002D0008606AE96239016017DF293F62700ADC6F2
:1002E000B7E7004083D68700C206C18223A8D1C2E7
:1002F00003A601C323A4C1C283A701C383D6C1C27D
:10030000BD079183C207C18363FAF602958FC207C6
:1003100037E50040C183014631059385C13583D659
:10032000C1C2050693881600239611C383580500A1
:100330008606AE9623901601E343F6FE9547238D7D
:10034000F1C2A382F1C225BF93F60701B1CEB7E790
:100350000040A10783D70700C207C18323A8F1C2C9
:1003600083A701C383D6C1C2BD079183C207C183DE
:1003700063FAF602958FC20737E50040C183014654
:1003800031059385C13583D6C1C205069388160011
:10039000239611C3835805008606AE962390160156
:1003A000E343F6FE8D4761BF93F70702E38907EC4D
:1003B000914771B7994761B7411106C6971000E0A0
:1003C000E78080242391A1C203D701C2AA87330505
:1003D000A7406374F7003385E7409306803E3305FA
:1003E000D5023355E502637DF7045146637AA604CE
:1003F0009307C03F01453307F7023357D7029317DE
:100400000701C1831387C1149308E700014693864F
:10041000C114035827000907231F07FF4296E39AD8
:10042000E8FE2397F600B2978D83C207C183B240DE
:10043000239FF1C02390F1C2238EA1C0410182808D
:100440001335550013451500E3FEE7FA7D179317A2
:100450000701C18345BFAA86AA95196513053536DC
:100460006393B600828003C8060085063348A8005F
:100470001378F80F131748001377F70FB3470701E6
:10048000139687008E073D8E3347070193578500EB
:100490003D8E1183398E131506014181D1B7AA868D
:1004A000B6951965939805011305353693D808015B
:1004B00093970601C183135885006397F800238042
:1004C000A500A3800501828083C706008506A98F49
:1004D000E207E18713974700B98F13F6F70F91836F
:1004E00013F7F700931736002206B98F336606011B
:1004F000B18F13950701418165BF0D6781471307D0
:10050000478363C4C70005458280B306F50003C86E
:100510000600B386F50083C606003A980348080033
:100520006314D8008507F1BF014582800D678147BC
:100530001307478363C3C7008280B306F50083C6F1
:1005400006003388F5008507BA9683C606002300A7
:10055000D800CDB7011122CC06CE26CA4AC84EC655
:100560009307000A2A846300F50E9387C1C4238091
:10057000070023800710238007202380073093077C
:100580002005630AF518B28463CBA70293076002C3
:100590006303F518930700056301F51A894763089B
:1005A000F524238A01C21947238DE1C28547F24011
:1005B0006244D2444249B2493E8505618280930734
:1005C000000E6300F52063C7A7041307D5F6914713
:1005D000E3E9E7FCD547B3D7E700858BF9D3137779
:1005E000F40F9387C10489462380E700639DD416E6
:1005F000130700021385C1049385C115A380E7008A
:1006000035371167B7E70040130727362398E7000F
:1006100041458DA09307200FE315F5F803C70500AA
:100620009387C1042380E70003C715001385C10425
:100630008945A380E700A53511469385C11513852B
:10064000C104ED3531AA03C781C08545130707FAF8
:100650002386E10403C781C01385C1041347170033
:100660002384E1C02D3D1385C1040D469385C1153A
:10067000753D6145971000E0E7808015E31805F2AD
:10068000971000E0E780C00603C7A1C3A382E1C2C0
:1006900083A601C323A4D1C29547E319F5F083A42F
:1006A00001C3A54693071010B3F4D402E39104F0FC
:1006B00083A901C3B3D9D9029385C1151385C12577
:1006C000139609014182153D8947E30205EE930720
:1006D00020056300F40263C5871893076002630A6C
:1006E000F400CE851385C125BD3393073010E31088
:1006F00005EC83C7C1251307200F1386C125639618
:10070000E71A09469385C1251305200FA1359317D4
:100710000501C18369BD238681048D679387478363
:10072000A29703C707001D45238EE114B7E70040D9
:10073000130790152398E70035BF2396A104894538
:100740001385C104A93B11469385C1151385C104C6
:10075000F13B0967B7E700401307171B2398E70031
:100760001305000201BF13070007A380E7002383DE
:1007700007001386C10401471145B386E50083C60F
:10078000060005070506A300D60003C86700B3C628
:1007900006012383D700E312A7FE9D451385C104FC
:1007A000FD391385C10425469385C1154133116771
:1007B000B7E70040130727362398E70013058004A6
:1007C00055BDE1779387070E09472396F1048945C4
:1007D0001385C1042384E1C0D93111469385C11525
:1007E0001385C104A133B7E700407D5785BF03C718
:1007F00081C02386E10403C781C013471700238407
:10080000E1C081471387C10463C2970413891400B0
:10081000420913590901CA851385C10449311306D8
:10082000290042061385C10441829385C115FD3913
:10083000138534000E05B7E700407D574205239825
:10084000E70041818D47E3FEA7D42DB58507B38628
:10085000F50003C6F6FFB306F7002380C6006DB7A8
:100860001307D4F69147E3EEE7E6D547B3D7E700A1
:10087000858BE38807E603C7D10493070002E312E0
:10088000F7E61387C1258346170083470700B58F16
:1008900083462700B58F8346370003474700B58F4F
:1008A000E309F7E49307201019B313F70701814711
:1008B000E30F07CE09476306E4001307000AE318B5
:1008C000E4CE03C7C1C49387C1C41DC303C70710C7
:1008D00011CF03C707200DCF03C7073093040030A3
:1008E00001CB014681451305000A0DB593040010A4
:1008F0000147930500103305E60003450500B38664
:10090000E400BE962380A6000507E316B7FED1BF1C
:1009100093040020F1BF03D7C15519C3239E01548E
:100920008280B72700209387C7E583C7170E89EB1E
:100930000965A9451305857B171300E06700636906
:10094000828001458280B7F700E09847BD670111BA
:100950009387073C4AC83309F60252C4372A00205D
:1009600022CC4EC656C206CE26CAAA892E843A99F1
:10097000130ACAE5B7FA00E019EC0545F2406244F3
:10098000D2444249B249224A924A0561828083A7F1
:100990008A0063F9270383471A0EF5FB93070004C7
:1009A000A28463F4870093040004C204C180058C10
:1009B0004E85A6854204971000E0E7808061A699E5
:1009C00041805DBF01455DBF7971930710FA230631
:1009D000F1007C00AA86A306A10006D63E86014748
:1009E0003E85938501C4A94801486356D700330862
:1009F000B700034808002301060105070506E315B3
:100A000017FF0147938641C12146B305D70083C52F
:100A1000050005078507A385B700E318C7FE130681
:100A20002003D1450D37B25045618280797193071B
:100A300020FA9316260078002306F100A306A100F1
:100A400006D693F6F60F2307C10081473A85414841
:100A5000014663D6D7003386F50003460600A3019E
:100A6000C70085070507E39507FF13062003CD455B
:100A7000D93DB250456182800111A306A1009307C0
:100A800030FA680013062003894506CE2306F100DC
:100A90005D3DF24005618280411122C4930700064A
:100AA0002386F10405461385C1049385C11506C646
:100AB000B53C6177B7E700401307476C2398E70020
:100AC0002145971000E0E780A0D03DE5971000E0B9
:100AD000E78000C295476311F50683A701C3A546C9
:100AE000B3F7D702B1EB83A701C32147938767FA16
:100AF0006364F7049385C11529461385C125F53A2A
:100B000005CDA9451385C125B9321DE58147138758
:100B100041C11384C125A146B385870083C5050063
:100B20003386E70085072300B600E397D7FE054527
:100B3000B2402244410182800145DDBF938741C11B
:100B400003C71700914601456310D70283C62700EB
:100B5000639CE60083C6370009476397E60003C538
:100B600067003D15133515008280411122C406C669
:100B700026C29387C10413070003A380A7008945F9
:100B80001385C1042380E700EFF07F911385C10432
:100B900011469385C115593A6177B7E700401307AD
:100BA000476C2398E70013050002971000E0E780E8
:100BB00020C219C50145B2402244924441018280BD
:100BC000971000E0E780C0B29547E315F5FE83A7D4
:100BD00001C3A546B3F7D702F1FF83A701C321479D
:100BE0009387E7F5E368F7FC49469385C1151385BC
:100BF000C125EFF09F905DDDC9451385C125EFF05C
:100C00009F851335150045BF1D717808A2CCD6C24B
:100C100086CEA6CACAC8CEC6D2C4DAC02A84814744
:100C2000BA8A930640082300F700910793F7F70F5D
:100C30000507E39AD7FE930730F8A30EF102A93D0A
:100C400001ED05456644F640D6444649B649264A74
:100C5000964A064B25610DB5D53519E10945DDB735
:100C600022859D330144130A3008130B70F81309D1
:100C70002002B3878A0083C40700114663769A0076
:100C800033069B401376F60F268532C6F93D324671
:100C900019E10D4545BF9385C125268505047933A6
:100CA000E31924FD014579BF89E583C701C491C7D4
:100CB000A1BF930700026399F50C0111014681451C
:100CC0001305000E06CE22CC26CA4AC84EC652C410
:100CD00056C2EFF03F881DE983A501C3A547B3D5F0
:100CE000F502130640061385C12537FA00E0C20558
:100CF000C1819139B7F700E08047B7375F0093872C
:100D000007703E9483278A0063EB8700F2406244B9
:100D1000D2444249B249224A924A0561828083D72D
:100D2000C155EDD303D6C1559385E1550945EFF083
:100D30007F8221E91384C1C4930A044083470400DD
:100D400089CF22851306400693050010ED3E13045B
:100D50000410230004F0E31354FF83A501C3A54747
:100D600013064006B3D5F5021385C125C205C1811E
:100D7000D93EB7F700E08047B7375F009387077029
:100D80003E94239E0154BDBF82801D7186CEA2CCAD
:100D9000A6CACAC8CEC6D2C4D6C2DAC05EDE62DC7B
:100DA00066DA6AD86ED6B71700403717004003C618
:100DB0007705B71600400348B7053717004003C54D
:100DC00086058345970583C877051376F60F137854
:100DD000F80F93F8E80FA38B1705B947238CF60497
:100DE0008D47A30CF704B717004003C7A7059387E7
:100DF000A7051375F50F1377D70F2380E70003C7F7
:100E0000070093F5F50F136707032380E70003C777
:100E10000700136717002380E70003C70700058B4F
:100E20006DFFB7170040371700409387C70583D77A
:100E30000700A30D070537170040230CA704371739
:100E40000040A30CB70437170040A30BC7041307D7
:100E5000A041B387E7027D771307273B856693861A
:100E600086D493870710A587BA9737E700405107C4
:100E700063DEF61E1C4385669386F69FF58F1CC3C2
:100E80008D67938787823EC889679387877F814470
:100E9000014A8149814B814D014B0144814C02C67D
:100EA00002C41389C1253ECAB7F700E083AA8700B0
:100EB0006E8D953463F25C0513CD1D008547137D5F
:100EC000FD0F6392FD1EB71700409387870D2147E2
:100ED00098C3424793971B00850BBA9783DC0700A2
:100EE000BD679387073CB38CFC0293FBFB0F9547D0
:100EF000D69C63F37701814BB24763F05705930D9E
:100F00001B008547137B3B0093FDFD0F6302FB1A1B
:100F100089476303FB1A01468145130500026303F9
:100F20000B000145971000E0E78000A2B717EE0024
:100F300093870798D6973EC66E8B63F98A002686FC
:100F4000D2854E85971000E0E78000A0A24763FCA1
:100F50005733C13AB7173D019387070CD6973EC464
:100F6000970000E0E780C067970000E0E780C06975
:100F70002391A1C203D701C213060002239FE1C03F
:100F80008145014537E40040238E01C0971000E001
:100F9000E780809B8347040037C504001305052CB8
:100FA00093F7B70F2300F400970000E0E780C049F3
:100FB0008347040037C504001305052C93E7470059
:100FC0002300F400970000E0E780004801468145D7
:100FD00013056002EFF00FD8631205340146930544
:100FE0000002971000E0E78020960946814513052E
:100FF000300903DAC125EFF0EFD5AA89631A053865
:101000003724CA02130404C81306000281451305DD
:101010000002971000E0E78020935694834A09006D
:1010200013078008938401C46392EA288347190058
:101030001D46CA852380F400834729001305300923
:10104000A380F400834739002381F400EFF08FD0B0
:1010500009E90946814513055009EFF0AFCFAA8D84
:1010600025C1014A93090002CE8409A485669386AE
:1010700086BB63DAF6001C4385669386F69FF58F80
:101080008966D58FEDBB05668566130686A29386B5
:10109000F69F6356F6001C43F58F9166DDB71C433F
:1010A000F58F9966F9BFB71700409387C70C05B550
:1010B000014693050002B5B513060002814595B5BA
:1010C0000346090083461900034729008347390076
:1010D000631D561B1D469385C12513055009A38129
:1010E000D4002382E400A382F400EFF0AFC635F908
:1010F0000946814513057009EFF0CFC5AA8D35F17A
:1011000083D7C1251D469385C1252393F4008357BA
:10111000290013057009A94A2394F400EFF08FC346
:1011200019E1834D0900EE855685BD3E0146814596
:1011300013050005EFF00FC2B7E70040A3800700DA
:10114000B7E70040238007004147B7E700E093FD81
:10115000FD0123A2E718910D9307000213F6FD0F7E
:1011600063F4B70113060002137AFA01110A930718
:1011700000029375FA0F63F447019305000283C7D9
:1011800004001547B387E70213070002FD8B9107A0
:101190003E856374F700130500021375F50397008D
:1011A00000E0E780607A9387F1C3BE9AB7F700E06A
:1011B00083C40A0083AA870083C701C18D8889E799
:1011C000970000E0E780C0780D6A130A8A8185677E
:1011D000B75D0040930E0A01014737FE00E0938798
:1011E000074513038006930800081308F00F990DB4
:1011F00083552A0089C893D64500B386D402AE969B
:1012000093950601C181014585C90D668146130686
:1012100006EE3ECE3ACC971000E0E7804028F24739
:1012200062478D661308F00F9308000813038006C9
:1012300037FE00E0938E8682014683560A0063677C
:10124000D608110AE316DAFBB7570040130700F877
:101250002383E700014681450145970000E0E780D0
:10126000A06E014A9304000293090002B7E7004010
:10127000A3800700B7E70040238007004147B7E796
:1012800000E023A2E718EA8D05B1A381C40093858D
:10129000C1251D46130550092382D400A382E40012
:1012A0002383F4009D4AEFF0EFAA9DBD03A7C1255B
:1012B0001D46CA851305300923A0E1C4EFF08FA9AC
:1012C000814D19E1834D0900914AB1BD83268E00FD
:1012D000B3865641E3CC06FED2452A979356B70112
:1012E000AE9683860600BE9AB3866602B3C6160320
:1012F000B38636418986B69993860908635CD8001F
:101300009306F00F050693F6F60F42062380DD00E4
:10131000418225B7E3D806FE8146EDB783C651C2A8
:10132000114613F7F60F6387C60299466306D70482
:101330008D466308D70483C651C205476386E60419
:1013400083C451C2014AF91493B41400960493095A
:10135000000231A0814993040002130A00023734CD
:101360004C00130404C02686D2854E8556949700FF
:1013700000E0E780605DDDBD93040002130A000217
:10138000F9B78144294AE1B7014A93040002C1B781
:101390003714DC011304043056948149130A000207
:0413A000E1B10000B7
:1013A400B7F700E09C4737F700E03E951C47898F6C
:1013B400E3CE07FE8280B72700209387C7E5054761
:1013C40023AAE70C378700408346C70093E6060448
:1013D4002306D700FD5623ACD70C8346D70093E6EB
:1013E4008600A306D700B72600209386C6E62318F6
:1013F400D700B7260020378700409386C6EA231A11
:10140400D700B7260020378700409386C6EE231CFA
:10141400D70037870040C9462301D70237870040E9
:1014240089462303D702A380070E3787004023058C
:1014340007022381070E8280B7E700E037074000E8
:1014440023A0E718B717004003D7A701C166938606
:10145400F6F3758F239DE700B78700401947238073
:10146400E700238007001305C0261DBFB7170040FF
:101474009387870D1307000498C30100010001003E
:10148400010001000100B71700409387C70C98C3FF
:101494000100010001000100010001000100010040
:1014A4000100010001000100010001000100010030
:1014B40001000100010001008280B71700409387FA
:1014C400870D1307000498C3010001000100010007
:1014D4000100010001000100010001000100010000
:1014E4000100010001000100B71700409387C70CF9
:1014F40098C3010001000100010001000100010086
:101504000100010001008280411122C426C206C6E6
:101514002A84A14493178401E18763DD0700713FA6
:101524000604FD141374F40FF5F4B24022449244FB
:1015340041018280253FEDB7B7E700401307400221
:101544002380E700D84BB9669386F67F758FD8CB96
:10155400B7E700E0414723A2E72823A2E7108280EF
:10156400B7170040B7160040371700403716004041
:1015740083C577058348B7050347860503C89605E1
:1015840003C5770593F5F50F93F8F80F1375E50F79
:10159400A38BA704C147230CF60493073004A38C40
:1015A400F604B717004083C6A7059387A7051377EA
:1015B400F70F93F6D60F2380D70083C6070013785E
:1015C400F80F93F6F60C2380D70083C6070093E642
:1015D40016002380D70083C6070093F61608E5FE9D
:1015E400B71600409386C60583D6060003C60700D7
:1015F400C206136616002380C70037160040C18256
:101604001306A6058347060093F71708E5FFB717E7
:10161400004003D5C705B717004093878705369563
:10162400C14605816313D70039472380E700B71704
:101634000040A38D1705B7170040A38C0705B71703
:101644000040A38BB7048280011126CA4AC84EC643
:10165400896552C406CE22CC938525719384C13505
:101664001389E1359389C12503C7A1C3894763EE73
:10167400E7001384F5FF5DE0F24022856244D24422
:101684004249B249224A0561828083C741C389E73E
:1016940003C4A1C379DCCDB737E700408347070013
:1016A40093F7F70E2300F70003A501C303C641C255
:1016B40042054181A147E3FDA7FC01471388C115F9
:1016C40093080010254EA14E935646008606B38714
:1016D4009600137F860083D707001373F600630711
:1016E4000F00CA9683D60600C206D58FB3D767000B
:1016F400B306370193F7F71F2380F600B3060701FB
:10170400A1832380F60005072506E30317F9B30731
:10171400C703B307F540E3E9FEFA9DBF0965130566
:101724008583BD39A28589B78D469387C135014725
:1017340063F1A606130775000D879306001063D4A2
:10174400E6001307001042074183BE8501469388D3
:10175400C1151388C104B306160183C606003303FA
:10176400060103430300B336D000A206B3E66600C5
:1017740005062390D50093160601C1828905E3EC82
:10178400E6FCA546B306D7020E073305A740338708
:10179400A640B7E60040A380060037E60040834633
:1017A400060093F6E60E2300D6000546238AC1C23E
:1017B40013160701238201C24182B7E60040239435
:1017C400C600254693068700B3C6C60213068004E6
:1017D400634CE60037E6004001473106634DD70409
:1017E40093970601C18331A837E7004013860701A8
:1017F400310783D5070089072310B700E31BF6FEE2
:10180400A147239CF1C2239BD1C20547238DE1C28A
:10181400A546B7E700402392D700B7E7004037E773
:101824000040A380D70083470700014593E7970052
:101834002300F700828083D507000507890723105A
:10184400B60069BF411126C24AC006C622C42E8909
:10185400B28473240030F327003093F777F7739042
:1018640007305D314A854D31268579390145218816
:10187400613919C4F327003093E787087390073060
:101884002244B7170040B240924402499387C70CE0
:101894001307000498C33D651305053C410109B6CF
:1018A400AE87AA853E8579BFB71700409387470D59
:1018B4009843130600F81367170098C3B71700403E
:1018C4009387070C98431367170098C33757004052
:1018D4008347070093F7B70F2300F700B75700407B
:1018E40083C6270093F6260D2381D70083C62700DD
:1018F40093E616002381D700B757004083C617002C
:1019040093F6B60FA380D700B75700408546A3814E
:10191400D700B75700402383C7008347070093E7E6
:1019240047002300F7002388D1C08280970100205C
:10193400938101DD17E101201301816C138501C13D
:10194400970500209385C55F6377B50023200500C4
:101954001105E36DB5FE1305000A97E5FF1F938596
:10196400256A170600201306E69963FAC500832248
:10197400050023A0550011059105E3EAC5FE1715DE
:1019840000001305A50F938541C0138601C1638A26
:10199400C5008322050023A0550011059105E3EA43
:1019A400C5FE93070000FD42739002BC89629382D6
:1019B400828873A0023097E2FFFF9382626493E20D
:1019C400320073905230B7F700E0154798C3896727
:1019D40093872708739017347300203001A05D713A
:1019E4003ED0B7870040990783D7070022DE3AD25A
:1019F40086C696C49AC29EC026DC2ADA2ED832D66F
:101A040036D442CE46CC4ACA4EC872C676C47AC2CE
:101A14007EC013F7270037840040630B074213D7B7
:101A2400C74093D587400D8B8946BD896303D7048E
:101A34008D466301D71E630D0712B787004009471F
:101A44002383E7007254B640A64216438643E25409
:101A54005255C2553256A256125782577248E2481E
:101A64005249C249324EA24E124F824F61617300F5
:101A740020309DC9E343B7FCB78700409387270212
:101A8400139725003E978347070093C70704F19BEC
:101A940093E727002300F700B72700209387C7E5C3
:101AA400AE972380070E51BF372400209307C4E567
:101AB40083D727001304C4E599E7B78700401307C9
:101AC40000F82381E7028329C400A301040E638D77
:101AD40009048354240093070004268963F49700BF
:101AE40013090004420913590901B3842441372519
:101AF4000020C2044A86CE851305C5E6C180752E32
:101B040023119400814799C0B38729015CC4B78726
:101B1400004023802703B787004003C727021347E9
:101B240007042381E70211BF8347140093F70706D4
:101B340099CF83572400E38207F0034704008547C5
:101B4400E30DF7EEB787004023800702E9B70347A8
:101B540004009547E313F7EEB786004003C7360049
:101B64008347940013770708D98FA381F600F1B552
:101B74008346840093F6F60FA1ED13971701E35EF5
:101B840007EAB72700201387C7E503460700A546E1
:101B94009387C7E56304D6022391070003871700E0
:101BA400634507000547A381E70EB78700402380FC
:101BB400070213070005B7870040A5B7035727009E
:101BC40071DFB787004003C72702134707F891BFA7
:101BD4001146939725006354B60013070003BA9780
:101BE4003787004013072702BA9703C70700372532
:101BF40000201306C5E5134707F82380E7009397F1
:101C04006500C1073E961305C5E597E0FF1FE78011
:101C1400A04925B583477400E207E187E3DF07E0C5
:101C2400B78700401307A0FDB72E00202381E702E9
:101C34009387CEE503D7070183D8270103D867012B
:101C4400931687002183558F83D6470103C5070167
:101C5400239EEEE4139706013367170123910701CE
:101C6400D8C39378050603C317014286638C080022
:101C7400811893F8080C63980804B7870040130789
:101C8400F0FC45B5AD48E3EA68FE096E93182300FD
:101C9400130E8E78F29883A8080082888D668D656D
:101CA400938646939385C59783A806006399E804B1
:101CB400D842938ECEE5D8C703C786006353E800A5
:101CC40042872391EE00131785016187635207163B
:101CD400130700046354C700130600043787004049
:101CE4002300C70219476300E31403D72700118FA9
:101CF4002391E700B7870040130700041DB5B10620
:101D0400E394B6FA9DBFA384E70075BF03C78700B9
:101D14002388E7000547E37807FB2391E70065B7CD
:101D24002384E7000547A385E700378700408346FF
:101D3400670293F6F6032303D702378700408346EE
:101D4400A70293F6F6032305D702B5BF1378F5016E
:101D54008948E31418F31377F70F05F3E34FB8F04A
:101D640093F6060899DA138745030A073E97144346
:101D74007D57E394E6F08A0537870040BA952381BE
:101D8400050391B71378F5018948E31818EF137721
:101D9400F70FE31407EEE348B8F293F60608E38E70
:101DA40006EC138745030A073E9714437D57E396D1
:101DB400E6EC37870040130727028A05BA9503C764
:101DC4000500136737002380E500F5BD238807006D
:101DD400E35B00EF0546C5BD239807001377F501C3
:101DE40015CF8948E31B17E9E349B7E893F60608DA
:101DF400E38506E8138745030A073E9714437D5796
:101E0400E39DE6E68A05378700402E97834627023E
:101E14008D8AF51693B616002388D7000947E35434
:101E240007EB09464DB5B78700402381070231B15E
:101E3400B787004093872702130700F919E637870D
:101E4400004023000702130700042380E700F5B6CF
:101E540013F7170009CFB727002023A207E6A30131
:101E64000400EFF04FD585472303F400E1BE13F7D8
:101E7400470093F7F70F6DDB91472303F400130535
:101E8400C026EFF0EFD18346540037270020130714
:101E9400C7E5918A8347A70091C693E727002305E6
:101EA400F7004DB6F59BE5BF2A96AA876393C70052
:101EB40082802380B7008507D5BF81476313F6006E
:101EC40082803387F500834607003307F5008507D2
:101ED4002300D700E5B70966B7850700411113064B
:101EE4000650938585083705002006C6F937116723
:101EF400B70700201307575037250020239AE7100F
:101F04001306005681451305054F793FB73100206C
:101F1400938181CEB72200209382228C7390123455
:101F240073002030B24041018280411122C4372421
:101F3400002006C626C21304C4E58347340EB9EB59
:101F44008347140EA1EB83572400A9E7B787004009
:101F540083C77700E207E18763CE070237270020B3
:101F6400B78700409306C7EAAE84239AD7002E862B
:101F7400AA851305C7EA9137B787004023829702E1
:101F8400B787004003C76702719B2383E702854735
:101F9400A300F40EB2402244924441018280B71758
:101FA400004093870704930570052380B700130648
:101FB40080FA2380C70001000100372700408346D0
:101FC400578093F6F60EA302D78037270040854644
:101FD400A303D78023800700010001002380B700FA
:101FE4002380C700010001003717004093065034D6
:101FF4002314D70023800700010001008280397177
:102004003ACE371700403ECC8357E70906DE16DC8C
:10201400C207C1831ADA1ED82AD62ED432D236D0B9
:1020240042CA46C872C676C47AC27EC0231FF70865
:1020340093F7071095C3B71700409387470C9C4349
:1020440013979700634A0700EFF00FBF094597E025
:10205400FF1FE780E0FA4135F250E2525253C25377
:102064003255A255125682567247E2475248C24828
:10207400324EA24E124F824F216173002030011163
:1020840006CE22CC26CA4AC84EC652C4093F3717C8
:1020940000401307470D1C432146DD9B1CC3B717A3
:1020A40000409387070C944393E6860094C3B716C5
:1020B40000409386860D90C2144393E6060414C32D
:1020C400944393E6060494C3144393E6160014C39E
:1020D40098431367170098C3B71700409387C70C3A
:1020E4001307000498C383C701C199E3EFF0CFFB42
:1020F400014681450145EFF0EFF43717004013071F
:102104000704930770052300F700930780FA230060
:10211400F70001000100B717004083C6E70093E60B
:1021240006052387D700B717004083C6F70093F648
:10213400C60FA387D70083C6F70093F6F60FA387CD
:10214400D7002300070001000100A1443719004013
:1021540037D58E002326990C13050528EFF04FA4DC
:10216400371400401304840D37D58E0004C01305C2
:102174000528EFF0EFA237D58E002326990C13051E
:102184000528EFF0EFA137D58E0004C0130505280C
:10219400EFF00FA10146814504C013050002EFF0E2
:1021A4002FF0B714004083D7A401378400401305EF
:1021B400C02693E7070C239DF40099472300F400FD
:1021C40023000400EFF0CF9D9D472301F400A301F9
:1021D4000400930790022300F400FD572303F40046
:1021E400EFF06F9D930710F8A300F4003707400049
:1021F400B7E700E023A0E710154597E0FF1FE7804D
:1022040020E09305000201450146EFF06FE9B7179E
:1022140000409387470B9843B71600409386460DBA
:102224001377F7F798C3B71700409387070B9843C2
:10223400371400401304A4051377F7F798C3B717AE
:1022440000409387070A98431377F7F798C3B717A3
:102254000040D84F13670708D8CF90423707FDFFD7
:102264001307F7CF798E90C2B71600409386060DF8
:102274009042798E90C2B71600409386060C904225
:10228400718F98C2D84FB7060003558FD8CF83D724
:10229400A40193E70730239DF400EFF0EFA937750D
:1022A400BE00130505E0EFF0AF8FB71700403717F6
:1022B400004003C97705B7160040034AB70537172E
:1022C400004083C486058349970503C677053735DF
:1022D4005F00130505701376E60FA38BC704C1478F
:1022E400238CF60493073004A30CF70483470400FB
:1022F4001379F90F137AFA0F93F7D70F2300F40029
:102304008347040093F4F40F93F9F90F93F7F70C50
:102314002300F400EFF0CF88C16637150040A945CB
:102324008147FD1601471305C505034604001366DE
:1023340016002300C400034604001376160865FE45
:10234400835805003A881396080141826373170184
:10235400328813170801418336886373D6003288A4
:1023640093160801FD15C182B297E1F137160040BA
:10237400A30D4605C145371600401306860563992B
:10238400B406B9452300B600369737160040998F36
:10239400A30C36058D8337160040C207A30B260510
:1023A400C1832390F1C21387C1142310F7002311B2
:1023B400F7002312F7002313F7002314F700231563
:1023C400F7002316F7002317F700B7E70040A380B0
:1023D4000700B7E70040238007004147B7E700E064
:1023E4001306760523A2E71897F0FF1FE780E08F16
:1023F4002300960051BFAA882E8332872A88AE878D
:102404006396062097050000938545576371C30CB6
:10241400C1666377D60A9336061093B616008E0605
:102424003355D600AA9583C5050013050002AE9660
:10243400B305D540630BD500B317B300B3D6D800AA
:102444003317B600D58F3398B8009355070133D3AB
:10245400B702131607014182B3F7B7021A85B3080E
:1024640066029396070193570801D58F63FC170101
:10247400BA971305F3FF63E7E70063F51701130544
:10248400E3FFBA97B3871741B3D8B702420813588A
:102494000801B3F7B702B3061603C2073368F8009E
:1024A400C687637BD8003A989387F8FF6366E80091
:1024B4006374D8009387E8FF42055D8D814582806F
:1024C40037050001E146E37DA6F4C14691BF81468C
:1024D40009CAC167637FF6089336061093B61600DF
:1024E4008E06B357D600BE9583C70500B6979306EC
:1024F4000002B385F6406395F608B307C3408545EB
:102504009358070133DE17031316070141829356CC
:102514000801B3F7170372853303C603C207D58FC7
:1025240063FC6700BA971305FEFF63E7E70063F5F2
:1025340067001305EEFFBA97B387674033D31703D9
:10254400420813580801B3F71703B3066602C2071B
:102554003368F8009A87637BD8003A989307F3FFAF
:102564006366E8006374D8009307E3FF42055D8D5A
:102574008280B7070001E146E375F6F6C14695B7D8
:102584003317B600B356F300135507013313B300E2
:10259400B3D7F800B3E7670033D3A60213160701D5
:1025A40041823398B800B3F6A602B3086602939545
:1025B400060193D60701CD8E9A8563FC1601BA965F
:1025C4009305F3FF63E7E60063F516019305E3FF64
:1025D400BA96B3861641B3D8A602C207C183B3F62E
:1025E400A60233061603C206D58FC68663FCC7004F
:1025F400BA979386F8FF63E7E70063F5C70093860D
:10260400E8FFBA97C205918FD58DDDBD63E1D5147E
:10261400C16763FFF60213B70610133717000E07DE
:10262400B3D5E6009707000093874735AE9783C775
:102634000700BA9713070002B305F7406311F702C6
:102644000545E3EE66E633B5C80013351500828010
:10265400B70700016147E3F5F6FC4147D1B73357AB
:10266400F600B396B600D98E3357F3003313B30094
:10267400B3D7F800B3E7670013D30601B35E67026C
:1026840013980601135808013316B600337767020E
:10269400330ED8031315070113D70701498F768525
:1026A400637CC70136971385FEFF6367D7006375A4
:1026B400C7011385EEFF36973307C741335E6702C0
:1026C400C207C183337767023308C8034207D98F2F
:1026D400728763FC0701B6971307FEFF63E7D70011
:1026E40063F507011307EEFFB6974205416E598D56
:1026F4009306FEFF3377D500B3870741F18E135855
:10270400050141823303D702B306D8023307C70257
:102714003308C8023306D700135703013297637393
:10272400D700729893560701C29663E0D702E397E5
:10273400D7D8C167FD177D8F42073373F300B39871
:10274400B8001A978145E3FCE8D67D1585BB814521
:102754000145828008033500380035000000000080
:102764000A034E00460043004100000010036300CA
:10277400680033003200660075006E00000000003F
:1027840004030904DC1D0000501D00007E1C000031
:10279400881D00007E1C00000A1D0000A01C000013
:1027A4007E1C0000101D0000241D0000D01D000030
:1027B400CA1C00006E66636135383520763100002E
:1027C40009022000010100A0320904000002FFFFF9
:1027D400FF030705810240000107050202400001D2
:1027E4001201100100000040091235D00700010257
:1027F40003010000001931475A6A757D7F7D756AAF
:102804005A47311900E7CFB9A6968B8381838B96FB
:10281400A6B9CFE738040B02380493023804100336
:10282400900670033C003C003C002C01C8002003CF
:10283400010000010001010000010100010000018C
:10284400000101000100000101000001000101007C
:10285400000101000100000101000001000101006C
:10286400010000010001010000010100010000015C
:10287400000101000100000101000001000101004C
:10288400010000010001010000010100010000013C
:10289400010000010001010000010100010000012C
:1028A400000101000100000101000001000101001C
:1028B400000101000100000101000001000101000C
:1028C40001000001000101000001010001000001FC
:1028D40001000001000101000001010001000001EC
:1028E40000010100010000010100000100010100DC
:1028F40001000001000101000001010001000001CC
:1029040000010100010000010100000100010100BB
:1029140000010100010000010100000100010100AB
:10292400010000010001010000010100010000019B
:1029340000010000E4270000120000000002000073
:10294400C4270000200000000003000084270000CA
:1029540004000000010309047027000010000000B7
:1029640002030904642700000A00000003030904A9
:1029740058270000080000000001020203030303BB
:1029840004040404040404040505050505050505FB
:1029940005050505050505050606060606060606DB
:1029A40006060606060606060606060606060606C3
:1029B40006060606060606060707070707070707AB
:1029C4000707070707070707070707070707070793
:1029D4000707070707070707070707070707070783
:1029E4000707070707070707070707070707070773
:1029F400070707070707070708080808080808085B
:102A04000808080808080808080808080808080842
:102A14000808080808080808080808080808080832
:102A24000808080808080808080808080808080822
:102A34000808080808080808080808080808080812
:102A44000808080808080808080808080808080802
:102A540008080808080808080808080808080808F2
:102A640008080808080808080808080808080808E2
:082A740008080808080808081A
:0C2A7C000000000002000000000000004C
:00000001FF
