:100000006F10303900000000421C0000421C00004C
:10001000A9BDF9F3421C0000000000000000000030
:10002000421C0000421C0000000000000000000014
:10003000421C000000000000421C00000000000004
:10004000421C0000421C000010230000421C000063
:10005000421C0000421C0000441C00000000000084
:10006000421C0000421C0000421C0000421C000018
:10007000421C0000421C0000421C0000421C000008
:10008000421C0000421C0000421C0000421C0000F8
:1000900078020020421C0000421C0000421C0000AC
:1000A000011126CAB7741F0022CC4AC84EC606CE1C
:1000B0001304F5FF0D498549938404BC635904007A
:1000C000F2406244D2444249B24905618280B3673A
:1000D000240391C7638937016146814519A0014610
:1000E000E145014521A0014681456145972000E099
:1000F000E78000A62685971000E0E780605E014655
:1001000081450145972000E0E78080A411C4268541
:10011000971000E0E780C05C7D144DB78947638885
:10012000F51C828003C781C3854763E2E70803C7E4
:1001300081C3B3078B0083C7070029E3A38BF1C2F8
:1001400083C781C3850793F7F70F238CF1C203C7D9
:1001500081C389476310F70203C771C383C761C3B3
:10016000A207D98F239AF1C203D741C39307E01F97
:1001700063E9E7000504E34754FB21A8238BF1C2A0
:10018000C1B7971000E0E780E074B72700202398FC
:10019000070EB250225492540259F249624AD24A8E
:1001A000424BB24B224C924C024D4561828083D728
:1001B0000B0F95C32254B25092540259F249624A2D
:1001C000D24A424BB24B224C924C024D456117131E
:1001D00000E06700237083D741C303D721C3998F01
:1001E00033878A403E8993160701C207C183C182C3
:1001F00063F3F6003A8903D521C342091359090173
:100200000905B3058B004A866295972000E0E780D8
:1002100040FA83D721C34A94CA97C207C18323995E
:10022000F1C203D721C383D741C3E366F7F483D771
:1002300041C303D741C32398FB0E9147E31CF7F654
:1002400083574C0003572C00C207D98F3707000192
:100250001307271AE390E7F6B7E700E037074000F7
:1002600023A0E718B717004003D7A701C1669386FC
:10027000F6F3758F239DE700B78700401947238069
:10028000E700238007001305C026971000E0E780F1
:100290002045094531350966B78507001306065024
:1002A0009385850837050020972000E0E78060F0FF
:1002B0001167B70700201307575037250020239AEE
:1002C000E7101306005681451305054F972000E0FF
:1002D000E78000EDB7310020938181CEB722002066
:1002E0009382228C7390123473002030E1B57971BF
:1002F0005EC6B72B002022D426D24ECE52CC56CA90
:100300005AC862C466C26AC006D64AD0328BB68A60
:100310000144138C0B0F85B55D713AD437E700406B
:100320003ED28357470022DE36D6C20786C696C421
:100330009AC29EC02ADC2EDA32D842D046CE72CC87
:1003400076CA7AC87EC6C1832312F70003C721C2CA
:1003500085466314D70E13F7870029C303D601C25D
:1003600003D7E1C1637CE60237E50040154693857B
:100370008155310503D701C29308170006072E9750
:1003800003570700239011C32310E50083D801C24F
:1003900003D7E1C163F4E8007D1669FE13F7170087
:1003A00025C737E700408346070093F6E60F230092
:1003B000D70083C6C1C1ADCE23A601C2239401C21A
:1003C00003C6B1C0B7E600401376F60FA380C6009F
:1003D00089462381D1C28346070093E68601230024
:1003E000D70013F7270019C7971000E0E7800049EE
:1003F000954709A813F7070125CF971000E0E7807C
:10040000E0478D472381F1C27254B640A64216439D
:1004100086436255D2554256B256225792570258D9
:10042000F248624ED24E424FB24F616173002030AB
:10043000B7E70040A380070065BF8946631AD70469
:1004400013F7470059DFB7E500409546B10513861D
:10045000815503D781C2FD1613081700239401C3E9
:1004600003D805000607329723100701FDF295BF58
:1004700093F70702D1DB0547A38DE1C0971000E099
:10048000E780C03F83C7A1C093B7170091079DBF06
:1004900099478DBFB71700403717004003C5770550
:1004A000B71600408348B7053717004083C5860557
:1004B0000348970503C67705378E090037130040B8
:1004C0001376E60FA38BC704C147238CF60493076A
:1004D0003004A30CF704371700408347A705130720
:1004E000A7051375F50F93F7D70F2300F700834780
:1004F000070093F8F80F93F5F50F93F7F70C230027
:10050000F7001378F80F894E814737FF00E0130E8C
:100510000E581303C30585438346070093E6160070
:100520002300D70083268F00B38FC601B3B6DF0048
:100530003306D0408346070093F6160891CE8326F3
:100540008F00B382F641B3B65600B306D64063457A
:10055000D000EDF2E38002FE83560300B69763926B
:100560007E0A93D6170013970601B717004041463D
:100570004183938787056398C50839462380C70060
:10058000B7170040A38D1705B7170040A38C0705C8
:10059000B7170040A38BA70483D781C1C206C182CD
:1005A0003385D74063F4E7003385F6409306803EF9
:1005B0003305D5023355F50263FAE70451466377F4
:1005C000A6041307C03F0145B387E702B3D7D7029C
:1005D000139707014183938781149388E7000146AD
:1005E0009386811403D827008907239F07FF42962B
:1005F000E39AF8FE2397E60032970D83239CE1C02F
:100600008280854E11BF2380B7009DBF13355500F2
:1006100013451500E371F7FCFD171397070141839C
:100620005DBFAA86AA951965130535366393B60092
:10063000828003C8060085063348A8001378F80FA7
:10064000131748001377F70FB34707011396870076
:100650008E073D8E33470701935785003D8E1183EA
:10066000398E131506014181D1B7AA86B695196551
:10067000939805011305353693D808019397060121
:10068000C183135885006397F8002380A500A380D9
:100690000501828083C706008506A98FE207E187EE
:1006A00013974700B98F13F6F70F918313F7F700ED
:1006B000931736002206B98F33660601B18F139562
:1006C0000701418165BF0D6781471307C7AE63C44A
:1006D000C70005458280B306F50003C80600B3864F
:1006E000F50083C606003A98034808006314D80052
:1006F0008507F1BF014582800D6781471307C7AEAB
:1007000063C3C7008280B306F50083C60600338842
:10071000F5008507BA9683C606002300D800CDB73A
:10072000011122CC06CE26CA4AC84EC652C41307AF
:10073000000A2A846305E510138781C4230007009B
:1007400023000710230007202300073013070005AC
:100750006309E512B287634FA704130760026308B9
:10076000E51013070003630CE52209476305E51C48
:1007700081448DA055473357D700058B75DB9376A1
:10078000F40F1387810409452300D7006391A71252
:10079000930700021385810493858115A300F70058
:1007A000A13F1167B7E70040130727362398E700FA
:1007B000C1440DA01307000E6309E5146348A704A4
:1007C000130720056305E50A9306D5F61147814412
:1007D000E372D7FA85472384F1C02385F1C09307DC
:1007E0002005630CF41E63C9871C9307600263062F
:1007F000F41E1395040141818D4763E5A71E238EE6
:1008000001C019472381E1C28547D1A49307200F76
:10081000E310F5F603C70500938781042380E70002
:1008200003C71500138581048945A380E700353D82
:10083000114693858115138581047D3DB5A003C7BD
:1008400091C08545130707FA2384E10403C791C0CB
:100850001385810413471700A384E1C0393513853C
:1008600081040D4693858115413DE144A5B723845C
:10087000810413079015B7E700402398E7009D44D3
:1008800091BF2394A104894513858104F93B114646
:10089000938581151385810485350967B7E7004085
:1008A0001307171B2398E7009304000225B793074B
:1008B0000007A300F7002303070013868104814784
:1008C0001145B386F50083C6060085070506A3001B
:1008D000D60003486700B3C606012303D700E3929E
:1008E000A7FE9D4513858104493313858104254660
:1008F0009385811511351167B7E700401307273637
:100900002398E70093048004F1B5E1779387070EFD
:100910002394F1040947A384E1C089451385810428
:10092000A93311469385811513858104F133B7E707
:1009300000407D5785BF83C691C02384D10483C600
:1009400091C093C61600A384D1C001479386810449
:10095000634DF702938437008507139907011359F4
:100960000901CA851385810409331306290042064B
:1009700041829385811513858104BD3BB7E7004013
:100980007D578E042398E700B1B505073386E5004F
:100990000345F6FF3386E6002300A60055BF2384F7
:1009A000A10493868104014789C56354C00003C72D
:1009B0000500A380E60095B71306D4F69147E3EA55
:1009C000C7E2D547B3D7C700858BE38407E203C6E8
:1009D000910493070002E31EF6E0238401C02385FF
:1009E00001C001BD971000E0E7802001E31E05E093
:1009F000971000E0E78060F29547E317F5E083A4E5
:100A0000C1C2A54993071010B3F43403E9E003AA67
:100A1000C1C2B3593A039385811513858125139675
:100A2000090141824D3189475DC193072005630B60
:100A3000F40863CF8702930760026305F408CE854C
:100A400013858125F93E9307301051E183C7812535
:100A50001307200F138681256394E70809469385C1
:100A600081251305200F6D3993170501C18385A0DA
:100A70001307D4F69147E3E4E7FCD547B3D7E70083
:100A8000858BD5DF03C7910493070002E319F7FABA
:100A90001307C00293071010637B47031387812558
:100AA0008346170083470700B58F83462700B58F1D
:100AB0008346370003474700B58FE309F7F89307EC
:100AC000201031A0C547E3E347F993071010F24027
:100AD0006244D2444249B249224A3E85056182803D
:100AE00013F70701814765D709476306E400130739
:100AF000000AE31EE4FC03C781C4938781C41DC3BD
:100B000003C7071011CF03C707200DCF03C7073056
:100B10009304003001CB014681451305000AA1B7BB
:100B2000930400100147930500103305E6000345C8
:100B30000500B3069700BE962380A6000507E316BE
:100B4000B7FED1BF93040020F1BFB727002003D721
:100B5000070F19C32398070E828083D761C289EFDC
:100B60000D654111A9451305C5A606C6971000E0FD
:100B7000E780E077B2404101171300E06700C36CE3
:100B80001971A2DC86DEA6DACAD8CED6D2D4D6D2E5
:100B9000DAD0DECEE2CCE6CAEAC8EEC63284631E04
:100BA000060E83C7C1C3138BC1C3638B070EAA8410
:100BB00078088147930640082300F700910793F7D0
:100BC000F70F0507E39AD7FE930730F8A30EF1025B
:100BD000854593070006138581042384F10471344D
:100BE0000D46938581151385810439366177B7E702
:100BF00000401307476C2398E7006145971000E019
:100C0000E780A0DF938D8104631B0510971000E03F
:100C1000E780A0D095476314F51083A7C1C225478C
:100C2000B3F7E702639D070E83A7C1C221479387ED
:100C300067FA6366F70E294693858115138581252A
:100C4000593471CDA94513858125E13A69E90147F8
:100C5000938701C113858125A146B305A70083C5EC
:100C600005003306F70005072300B600E317D7FE9B
:100C700003C7170091466310D70283CC2700639CFB
:100C8000EC0083C6370009476397E60083C6670018
:100C900045476389E60A094561A0137406022DC021
:100CA000014681451305000EA53C39E983D761C291
:100CB000F5FF83A5C1C2A547B3D5F50213858125EC
:100CC00037345F001304047037FB00E0B72A0020BC
:100CD000C205C181971000E0E7806061B7F700E0CE
:100CE00084472694B3349400B30B904003278B00C1
:100CF000B3078740B337F700B387FB4063C5071AD4
:100D0000F6506654D6544659B659265A965A065B3A
:100D1000F64B664CD64C464DB64D09618280054572
:100D20006654F650D6544659B659265A965A065B1A
:100D3000F64B664CD64C464DB64D0961171300E094
:100D40006700035F130710FA2302E1005800A302B3
:100D500091003A868146050663C3960A13851400FE
:100D6000B14605056315D50A81462146B385D700EE
:100D700083C5050085060507A305B700E398C6FEF1
:100D800083D761C2F5FFD5454800B7EB0040617CD1
:100D9000971000E0E780A055C10B971000E0E780B6
:100DA000A04A130C4C6C7C08A29703CB0700930756
:100DB0003008E68463F86701930770F8B3846741ED
:100DC00093F4F40F9307000389451385810423806E
:100DD000FD00A3806D01EFF05F891385810411464A
:100DE00093858115EFF05F911305000223908B012D
:100DF000971000E0E78060C005C10D4515B7B30549
:100E0000DB0083C505008506A300B600A9B733063D
:100E1000A70023000600B1B7971000E0E780E0AF1D
:100E20009547E31CF5FC83A7C1C22547B3F7E7024A
:100E3000E9F783A7C1C221479387E7F5E36FF7FA84
:100E400049469385811513858125EFF0DF8755D5B8
:100E5000C94513858125EFF0CFFC45F1930720FAB2
:100E6000414693858125130561002302F100A30209
:100E70006101971000E0E780C03383D761C2F5FFBE
:100E80009395240089054800971000E0E7802046EC
:100E9000971000E0E780403B050493072002E3142D
:100EA000F4F00145B5BD971000E0E780E03983D745
:100EB0000A0FE38D07E203D60A0FB72500209385BA
:100EC000250F0945EFF0DF8535E1138481C49304D4
:100ED0000440834704008DC383D761C2F5FF228598
:100EE00093050010971000E0E780604013040410A1
:100EF000230004F0E31F94FC83D761C2F5FF83A5B0
:100F0000C1C2A54713858125B3D5F50237345F00EB
:100F100013040470C205C181971000E0E780203DF2
:100F2000B7F700E084472694B334940023980A0E60
:100F300065BB5971A6D2CAD086D6A2D4CECED2CCA9
:100F4000D6CADAC8DEC6E2C4E6C2EAC06EDEB717A9
:100F5000004037F300E03717004083248300B716C2
:100F6000004083C577058348B7053717004003C89D
:100F700086050345970503C67705014993F5F50FE7
:100F80001376E60FA38BC704B947238CF6048D476D
:100F9000A30CF704B717004003C7A7059387A7055D
:100FA00093F8F80F1377D70F2380E70003C70700E4
:100FB0001378F80F1375F50F136707032380E70005
:100FC00003C7070037FE00E0136717002380E70020
:100FD000032683003787090013070758B306E60086
:100FE00033B6C6003306C04003C70700058B01EBCC
:100FF000B71700409387C70583D7070031A8032799
:101000008E003303D740333767003307E64063452C
:10101000E00079FBE30A03FCB7170040A38D170536
:10102000B7170040238C0705B7170040A38CA7040F
:10103000B7170040A38BB70437E700405C4B9966B5
:101040008D69CE07CD83D58F5CCB0144014B93894D
:10105000C9AC138CC1C3D53C971000E0E780C01E1B
:10106000B7F700E09C47B386974033B7D700B30784
:101070002041998F6344F00091EF89CEF93CB7F796
:1010800000E003A98700B724B80393840460CA94DE
:1010900033B92401B7F700E09C47B386874033B7E4
:1010A000D700B3076041998F6344F000CDF7C5D6F0
:1010B000971000E0E780608337E400408347040036
:1010C00037C504001305052C93F7B70F2300F40070
:1010D000970000E0E780C06083470400378509007F
:1010E0001305055893E747002300F4008D6B970024
:1010F00000E0E780E05E154BC54C938B0B07014683
:10110000814513052005EFF0AFE1420541816317EA
:10111000052A83A7C1C263EDFC0001445E857D1BE7
:10112000970000E0E780C05BE31B0BFC6317044201
:1011300015651305454C83DB8125970000E0E780AA
:10114000205A0946814513053009EFF06FDDAA8C5E
:101150006305054205460C10130500032300010238
:10116000EFF00FDC6317052E03A7C1C29307100A27
:1011700063F1E72E83C8812513848125034524006C
:101180000348140003473400B3C7A800B347F8006E
:1011900093C78708631FF72A83454400034654001A
:1011A0008346640003477400B3C7C500034384004B
:1011B000B58FB98F631FF3289387C1C323801701AD
:1011C000A38007012381A700A381B7002382C70062
:1011D000A382D7002383E700814C1D44937DF40F45
:1011E000930750FA9385C1C3228613052102230079
:1011F000F102A300B103971000E0E78080FB18081C
:1012000093870D02BA9713FBFB0F238967FF938720
:101210000D02BA9713D78B40A389E7FE180893876E
:101220000D0293855D0013FDFC0FB38DE700238A4B
:10123000ADFF83D761C2F5FF0810971000E0E7808B
:10124000000B971000E0E78020006686DE8522858F
:10125000053A0146814513050005EFF06FCCB7E76D
:101260000040A3800700B7E7004023800700414704
:10127000B7E700E0137DFD0123A2E718110DE14758
:101280006A8663F3A701614683470C00154713760E
:10129000F60FB387E7026147FD8B9107BE85637345
:1012A000F700E145137BFB01110BE14793F5F50FC7
:1012B0005A8563F3670161451375F503971000E0E4
:1012C000E78000899387B1C3A29783CC0700B7F763
:1012D00000E083AD87000D64971000E0E780008D8B
:1012E0001304C4AB85683753004093FC3C00014BAA
:1012F00013070401014D814BB7FE00E093880845B8
:10130000130F8006930F00089302F00F1903835503
:10131000240063890C0093D74500B387FC02BE9577
:10132000C205C181014585C90D66130606EE8146D9
:101330001AC646C4971000E0E78080413243A248B5
:101340008D679302F00F930F0008130F8006B7FE0E
:1013500000E01387C7AC81468357040063FFF60A99
:10136000B305604103A68E00B307B641B337F6005C
:10137000B387F540E3C807FEB3871D01AA9B33B6C8
:10138000B701BE8D93D7BB01CE9783870700329BF1
:10139000B387E703B3C7F703B387A74189873E9DA8
:1013A00093070D0863D7F2069307F00F850693F7AE
:1013B000F70FC2062300F300C18279BF01468145C1
:1013C00013056002EFF0CFB5131405014180E3026D
:1013D00004D4A9B3A301CB00938581251D46130531
:1013E00050092302DB00A302EB002303FB00EFF014
:1013F0002FB3E31305DE834C0D00C5B323AEB1C29A
:101400001D469385812513053009EFF06FB1114416
:1014100005A4E3DD07F8814751BF1104E319E4EEA9
:10142000B7570040130700F82383E70001468145C2
:101430000145970000E0E780A071B7F700E003AB3B
:10144000870037143D011304040C5A94333B6401A4
:1014500019B10547B7E70040A3800700B7E7004090
:1014600023800700C146B7E700E023A2D71871D751
:10147000B7F700E003AD8700B70727059387C73D9F
:101480003ECEB707B001938707153ED0970000E026
:10149000E780C0710568B7580040814B0144814C1A
:1014A000814D37FE00E013080845930EE006130F48
:1014B0000008930FF00F9908114B7C08A29783D571
:1014C000070001458DC50D66130606EE814646C62A
:1014D00042C4971000E0E780A027B2482248930F4B
:1014E000F00F130F0008930EE00637FE00E01C100B
:1014F0008146338687008357060063F6F606B302FB
:10150000704183258E00B387A541B3B7F500B3873B
:10151000F240E3C807FEB3070D01AA9DB3B5A701CA
:101520003E8D93D7BD01CE9783870700AE9BB387CF
:10153000D703B3C7E703B38797418987BE9C9387D7
:101540000C0863DEFF009307F00F850693F7F70F93
:10155000C2062380F800C18279BF0147E5BDE3D60A
:1015600007FE8147DDB70904E31964F5B75700406A
:10157000130700F82383E700C9B5138D8125834D38
:101580000D001306800883461D0003472D00834786
:101590003D0083A58125E393CDE6138BC1C31D4692
:1015A00093858125130530092300DB00A300EB00A0
:1015B0002301FB00EFF0CF96E31D05E809468145C6
:1015C00013055009EFF0CF95E31505E803460D002C
:1015D00083461D0003472D0083473D00E31CB6DF13
:1015E0001D469385812513055009A301DB002302C5
:1015F000EB00A302FB00EFF0AF92E31C05E4094609
:10160000814513057009EFF0AF91AA8CE31305E44F
:1016100083D78125938581251D462313FB0083579E
:101620002D001305700929442314FB00EFF04F8FA0
:0C163000E31605BA834C0D0055B600000F
:10163C00B7F700E09C4737F700E03E951C47898FD1
:10164C00E3CE07FE8280B72700209387072F05473C
:10165C0023AAE70C378700408346C70093E60604AD
:10166C002306D700FD5623ACD70C8346D70093E650
:10167C008600A306D700B7260020938606302318D1
:10168C00D700B72600203787004093860634231AEC
:10169C00D700B72600203787004093860638231CD6
:1016AC00D70037870040C9462301D702378700404F
:1016BC0089462303D702A380070E378700402305F2
:1016CC0007022381070E8280B71700409387870D8E
:1016DC001307000498C3B71700409387C70C98C32F
:1016EC0001000100010001000100010001000100E6
:1016FC0001000100010001000100010001000100D6
:10170C0001000100010001000100010001000100C5
:10171C0001000100010001000100010001000100B5
:10172C0001000100010001000100010001000100A5
:10173C008280B71700409387870D1307000498C366
:10174C000100010001000100010001000100010085
:10175C000100010001000100B71700409387C70C7E
:10176C0098C301000100010001000100010001000B
:10177C000100010001000100010001000100010055
:10178C000100010001000100010001000100010045
:10179C00010001000100010001008280411122C4FE
:1017AC0026C206C62A84A14493178401E18763DD0F
:1017BC00070041370604FD141374F40FF5F4B2401E
:1017CC0022449244410182800137EDB7B7E70040D3
:1017DC00A10783D70700C207C18323A6F1C283A741
:1017EC00C1C203D781C2BD079183C207C183637A8B
:1017FC00F702998FC207B7E50040C1838146B10556
:10180C001386815503D781C28506130817002394CC
:10181C0001C303D805000607329723100701E3C361
:10182C00F6FE8280239A01C2239901C2238C01C245
:10183C00A38B01C2238B01C28280B7E70040130740
:10184C0040022380E700D84BB9669386F67F758FEC
:10185C00D8CBD84B13670762D8CBB7E700E041472A
:10186C0023A2E72823A2E7108280011126CA4AC8C6
:10187C004EC6896552C406CE22CC938525719384BD
:10188C0081551389A1559389812503C721C28947A5
:10189C0063EEE7001384F5FF5DE0F24022856244BD
:1018AC00D2444249B249224A0561828083C7C1C1F0
:1018BC0089E703C421C279DCCDB737E70040834701
:1018CC00070093F7F70E2300F70003A5C1C203C668
:1018DC00A1C142054181A147E3FDA7FC0147138843
:1018EC00811593080010254EA14E9356460086068E
:1018FC00B3879600137F860083D707001373F60017
:10190C0063070F00CA9683D60600C206D58FB3D7DD
:10191C006700B306370193F7F71F2380F600B30671
:10192C000701A1832380F60005072506E30317F9B9
:10193C00B307C703B307F540E3E9FEFA9DBF09659A
:10194C0013058583F531A28589B78D46938781551B
:10195C00014763FCA604AA8581469D4E130F801097
:10196C00138881159388810463E2BE0A85C9130626
:10197C0000106305C70213878115369703470700CC
:10198C009385810413961600AE9683C606003337F2
:10199C00E00022073E96558F2310E60013573500C2
:1019AC00A5463307D7021D892A97B7E60040A380C6
:1019BC00060037E600408346060093F6E60E230049
:1019CC00D6000546238EC1C0238D01C0A38D01C056
:1019DC0013066002A385C1C0131607014182B7E646
:1019EC0000402394C600254693068700B3C6C60262
:1019FC00130680046368E60437E6004001473106AD
:101A0C006399E60893970601C18391A8130E87008A
:101A1C00E306EEF93306070103460600B30F170180
:101A2C0083CF0F003336C0001313170022063E93EA
:101A3C003366F6012310C3000507E31DC7FD8506B9
:101A4C00E1151DB737E7004013860701310783D531
:101A5C00070089072310B700E31BF6FEA14723906C
:101A6C00F1C2239FD1C005472381E1C2A546B7E748
:101A7C0000402392D700B7E7004037E70040A3802F
:101A8C00D70083470700014593E797002300F70031
:101A9C00828083D50700050789072310B6008DB710
:101AAC00411126C24AC006C622C42E89B2847324B0
:101ABC000030F327003093F777F773900730F9393C
:101ACC004A85E9392685D93901452188C13919C496
:101ADC00F327003093E78708739007302244B71739
:101AEC000040B240924402499387C70C130700048C
:101AFC0098C33D651305053C41011DBE83C701C359
:101B0C00D1E3B71700409387470D9843930500F82E
:101B1C001367170098C3B71700409387070C9843B7
:101B2C001367170098C3375700408347070093F794
:101B3C00B70F2300F700B757004083C6270093F672
:101B4C00260D2381D70083C6270093E61600238138
:101B5C00D700B757004083C6170093F6B60FA38083
:101B6C00D700B75700408546A381D700B757004030
:101B7C002383B7008347070093E747002300F70050
:101B8C002388D1C2828097010020938161E017E104
:101B9C00012013016146138501C19715002093851F
:101BAC00E5826377B500232005001105E36DB5FED2
:101BBC001305000A97E5FF1F9385054417060020BF
:101BCC001306469D63FAC5008322050023A0550029
:101BDC0011059105E3EAC5FE17150000130505155F
:101BEC00938541C0138601C1638AC5008322050019
:101BFC0023A0550011059105E3EAC5FE93070000EB
:101C0C00FD42739002BC89629382828873A0023079
:101C1C0097E2FFFF9382423E93E232007390523080
:101C2C00B7F700E0154798C38967938747317390DE
:101C3C0017347300203001A05D713ED0B78700408F
:101C4C00990783D7070022DE3AD286C696C49AC279
:101C5C009EC026DC2ADA2ED832D636D442CE46CCDA
:101C6C004ACA4EC872C676C47AC27EC013F7270021
:101C7C00378400406302074213D7C74093D587408F
:101C8C000D8B8946BD896303D7048D466308D71C29
:101C9C00630D0712B787004009472383E70072548E
:101CAC00B640A64216438643E2545255C2553256AC
:101CBC00A256125782577248E2485249C249324ED4
:101CCC00A24E124F824F6161730020309DC9E343D5
:101CDC00B7FCB787004093872702139725003E97E0
:101CEC008347070093C70704F19B93E72700230062
:101CFC00F700B72700209387072FAE972380070E96
:101D0C0051BF372400209307042F83D727001304D7
:101D1C00042F99E7B7870040130700F82381E702E7
:101D2C008329C400A301040E638D09048354240089
:101D3C0093070004268963F49700130900044209F1
:101D4C0013590901B384244137250020C2044A8663
:101D5C00CE8513050530C1806D2623119400814773
:101D6C0099C0B38729015CC4B7870040238027033F
:101D7C00B787004003C72702134707042381E702F4
:101D8C0011BF8347140093F7070699CF835724009C
:101D9C00E38207F0034704008547E30DF7EEB787AE
:101DAC00004023800702E9B7034704009547E3137B
:101DBC00F7EEB786004003C73600834794001377CD
:101DCC000708D98FA381F600F1B58346840093F6FA
:101DDC00F60FB9E113971701E35E07EAB727002066
:101DEC009387072F03D727000DE30387170063455D
:101DFC0007000547A381E70EB78700402380070241
:101E0C0013070005B787004095BFB787004003C78D
:101E1C002702134707F89DB7114693972500635483
:101E2C00B60013070003BA97378700401307270241
:101E3C00BA9703C70700372500201306052F134751
:101E4C0007F82380E70093976500C1073E961305BA
:101E5C00052F97E0FF1FE780E0212DBD834774001D
:101E6C00E207E187E3D807E2B78700401307A0FD3C
:101E7C00B72E00202381E70293870E2F03D707018B
:101E8C0083D8270103D86701931687002183558FC8
:101E9C0083D6470103C507012398EE2E139706013D
:101EAC003367170123910701D8C39378050603C341
:101EBC0017014286638C0800811893F8080C63980C
:101ECC000804B78700401307F0FC4DBDAD48E3EAAA
:101EDC0068FE0D6E93182300130ECEA3F29883A800
:101EEC00080082888D668D659386C6BE938545C332
:101EFC0083A806006399E804D842938E0E2FD8C7A6
:101F0C0003C786006353E80042872391EE00131742
:101F1C008501618763520716130700046354C700D9
:101F2C0013060004378700402300C70219476300DB
:101F3C00E31403D72700118F2391E700B7870040E4
:101F4C001307000425BDB106E394B6FA9DBFA38424
:101F5C00E70075BF03C787002388E7000547E378D0
:101F6C0007FB2391E70065B72384E7000547A385AA
:101F7C00E700378700408346670293F6F603230396
:101F8C00D702378700408346A70293F6F603230552
:101F9C00D702B5BF1378F5018948E31418F313770A
:101FAC00F70F05F3E34FB8F093F6060899DA1387A9
:101FBC0045030A073E9714437D57E394E6F08A05E0
:101FCC0037870040BA952381050391B71378F50143
:101FDC008948E31818EF1377F70FE31407EEE3487B
:101FEC00B8F293F60608E38E06EC138745030A074E
:101FFC003E9714437D57E396E6EC37870040130772
:10200C0027028A05BA9503C705001367370023809A
:10201C00E500F5BD23880700E35B00EF0546C5BD71
:10202C00239807001377F50115CF8948E31B17E9AF
:10203C00E349B7E893F60608E38506E813874503FA
:10204C000A073E9714437D57E39DE6E68A053787DA
:10205C0000402E97834627028D8AF51693B61600FC
:10206C002388D7000947E35407EB09464DB5B787DA
:10207C0000402381070239B9B787004093872702B4
:10208C00130700F919E637870040230007021307EE
:10209C0000042380E700FDBE13F7170009CFB72714
:1020AC00002023AC072EA3010400EFF0CFD9854705
:1020BC002303F400EDB613F7470093F7F70F6DDB2E
:1020CC0091472303F4001305C026EFF06FD6834627
:1020DC005400372700201307072F918A8347A70046
:1020EC0091C693E727002305F70055BEF59BE5BF86
:1020FC002A96AA876393C70082802380B70085073E
:10210C00D5BF81476313F60082803387F500834681
:10211C0007003307F50085072300D700E5B7411109
:10212C0022C43724002006C626C29307042F83C777
:10213C00370EB1EF1304042F8347140EA9EB83570A
:10214C002400B1E7B787004083C77700E207E18737
:10215C0063CF0702AE8491CD37270020B7870040AC
:10216C00930607342E86239AD700AA8513050734C5
:10217C00493FB787004023829702B787004003C7C7
:10218C006702719B2383E7028547A300F40EB240DC
:10219C002244924441018280411126C283D761C2FC
:1021AC0006C622C44AC0D1C7B72700209387072F81
:1021BC0083C7170E858BB5EF83D741C295E703D73D
:1021CC0061C2854763F2E702894513858135813FFA
:1021DC0089472392F1C203D761C2631CF70423938E
:1021EC0001C2239201C2B1A083D761C203D741C2FD
:1021FC00998F3E89C207C183130700046374F700EB
:10220C001309000483D741C24209135909011385EC
:10221C0081353E95CA85213783D741C2CA97C207FB
:10222C00C1832392F1C203D741C283D761C2E37841
:10223C00F7FAB2402244924402494101828093074A
:10224C00E01F63EEB702411126C283D761C206C6F6
:10225C0022C48DE3239CB1342E8491C52E86AA858D
:10226C001385A135793D09044204239201C24180B2
:10227C00239381C2B24022449244410182808280E5
:10228C000111930730FA06CE2306F100A306A10034
:10229C0083D761C2F5FF680089455537F53DF2409B
:1022AC0005618280B717004093870704930570057A
:1022BC002380B700130680FA2380C70001000100B9
:1022CC00372700408346578093F6F60EA302D7803B
:1022DC00372700408546A303D780238007000100E1
:1022EC0001002380B7002380C700010001003717CD
:1022FC000040930650342314D700238007000100BC
:10230C000100828073002030011126CAB7140040EE
:10231C009384440D06CE22CC4AC84EC652C456C233
:10232C0051379C40371400401304040C93E7070406
:10233C009CC01C40371900401309C90C93E70704D3
:10234C001CC0930700042320F900EFF02FFB01467B
:10235C0081450145EFF0CFF49C40B71900409389BB
:10236C00890D93E717009CC01C409304400B054A51
:10237C0093E717001CC0854709642320F900854AA0
:10238C001304841E228523A05901EFF06FAA228525
:10239C0023204901FD14EFF0AFA9EDF437951C0093
:1023AC0013050508B71900400569B7140040EFF094
:1023BC002FA81304400B9389890D054A854A1309EC
:1023CC00C95C9384C40C4A8523A05901EFF04FA635
:1023DC004A8523A044017D14EFF08FA56DF4379549
:1023EC001C0013050508EFF0AFA423A04401371916
:1023FC000040238801C2EFF06FF0EFF0AFC28357BB
:10240C00A901B78400401305C02693E7070C231DD0
:10241C00F90099472380F40023800400EFF04FA1CA
:10242C009D472381F400A38104009307900223802D
:10243C00F400FD572383F400EFF0EFA0930710F89E
:10244C0037074000A380F400B7E700E023A0E710B3
:10245C000146E1450145EFF0AFE40D65B1451305CB
:10246C0085A7F13B153B154597E0FF1FE780C0B8EA
:10247C00814561450146EFF0AFE2B7170040938705
:10248C00470B9843B71600409386460D1377F7F722
:10249C0098C3B71700409387070A9843B7140040B6
:1024AC009384A4051367070898C3B7170040938754
:1024BC00870B1307000898C3B7170040D84F136752
:1024CC000708D8CF90423707FDFF1307F7CF798E57
:1024DC0090C2B71600409386060D9042798E90C23A
:1024EC00B71600409386060C9042718F98C2D84F55
:1024FC00B7060003558FD8CF8357A901A16693E780
:10250C000730231DF900B717004003D78701558FFB
:10251C00239CE700EFF06FB23775BE00130505E0A2
:10252C00EFF00F91B71700403717004083C97705BC
:10253C00B7160040834AB7053717004003C9860514
:10254C00034A970503C6770537355F0013050570F9
:10255C001376E60FA38BC704C147238CF6049307AD
:10256C003004A30CF70483C7040093F9F90F93FA12
:10257C00FA0F93F7D70F2380F40083C70400137965
:10258C00F90F137AFA0F93F7F70C2380F400EFF09E
:10259C002F8AC1663788090037150040A945FD16FA
:1025AC000147B7F800E0130808581305C50583C7A1
:1025BC00040093E717002380F40083A7880033837B
:1025CC000701B337F3003306F04083C7040093F7D9
:1025DC00170891CF83A78800338E6740B3B7C70124
:1025EC00B307F6406345F000EDF3E3000EFE8357AE
:1025FC000500C207C1833E8663F3E7003A861317D2
:10260C00060141833E8663F3F60036869316060177
:10261C00FD15C1823E94C1FDB7170040A38D57052F
:10262C004146B7170040938787056318C90639469A
:10263C002380C700B7170040A38C47053697B71700
:10264C000040A38B3705B307E4408D83C207C183D9
:10265C00239CF1C0138781142310F7002311F7007A
:10266C002312F7002313F7002314F7002315F700A8
:10267C002316F7002317F700B7E70040A3800700E5
:10268C00B7E70040238007004147B7E700E023A2EB
:10269C00E71897E0FF1FE780407F2380270159BF91
:1026AC00AA882E8332872A88AE87639606209705E0
:1026BC0000009385A5576371C30CC1666377D60A76
:1026CC009336061093B616008E063355D600AA958F
:1026DC0083C5050013050002AE96B305D540630B08
:1026EC00D500B317B300B3D6D8003317B600D58FC7
:1026FC003398B8009355070133D3B702131607016B
:10270C004182B3F7B7021A85B308660293960701A4
:10271C0093570801D58F63FC1701BA971305F3FF84
:10272C0063E7E70063F517011305E3FFBA97B38777
:10273C001741B3D8B702420813580801B3F7B702D0
:10274C00B3061603C2073368F800C687637BD8004C
:10275C003A989387F8FF6366E8006374D800938710
:10276C00E8FF42055D8D8145828037050001E14619
:10277C00E37DA6F4C14691BF814609CAC167637F58
:10278C00F6089336061093B616008E06B357D6008D
:10279C00BE9583C70500B69793060002B385F64035
:1027AC006395F608B307C34085459358070133DE9C
:1027BC00170313160701418293560801B3F7170349
:1027CC0072853303C603C207D58F63FC6700BA97C3
:1027DC001305FEFF63E7E70063F567001305EEFFE3
:1027EC00BA97B387674033D31703420813580801CD
:1027FC00B3F71703B3066602C2073368F8009A876B
:10280C00637BD8003A989307F3FF6366E800637420
:10281C00D8009307E3FF42055D8D8280B707000166
:10282C00E146E375F6F6C14695B73317B600B356D5
:10283C00F300135507013313B300B3D7F800B3E714
:10284C00670033D3A6021316070141823398B800F0
:10285C00B3F6A602B30866029395060193D6070158
:10286C00CD8E9A8563FC1601BA969305F3FF63E748
:10287C00E60063F516019305E3FFBA96B38616419D
:10288C00B3D8A602C207C183B3F6A6023306160359
:10289C00C206D58FC68663FCC700BA979386F8FF2D
:1028AC0063E7E70063F5C7009386E8FFBA97C205B4
:1028BC00918FD58DDDBD63E1D514C16763FFF60241
:1028CC0013B70610133717000E07B3D5E60097079A
:1028DC0000009387A735AE9783C70700BA971307F5
:1028EC000002B305F7406311F7020545E3EE66E617
:1028FC0033B5C800133515008280B7070001614756
:10290C00E3F5F6FC4147D1B73357F600B396B60062
:10291C00D98E3357F3003313B300B3D7F800B3E7B2
:10292C00670013D30601B35E6702139806011358B0
:10293C0008013316B60033776702330ED80313152C
:10294C00070113D70701498F7685637CC70136973A
:10295C001385FEFF6367D7006375C7011385EEFF10
:10296C0036973307C741335E6702C207C18333779B
:10297C0067023308C8034207D98F728763FC0701CB
:10298C00B6971307FEFF63E7D70063F5070113073C
:10299C00EEFFB6974205416E598D9306FEFF3377D5
:1029AC00D500B3870741F18E1358050141823303DB
:1029BC00D702B306D8023307C7023308C80233065E
:1029CC00D7001357030132976373D700729893564D
:1029DC000701C29663E0D702E397D7D8C167FD170A
:1029EC007D8F42073373F300B398B8001A97814573
:1029FC00E3FCE8D67D1585BB81450145828000004E
:102A0C000803350038003500000000000A034E00B2
:102A1C0046004300410000001003630068003300CF
:102A2C003200660075006E0000000000040309040B
:102A3C002C200000A01F0000CE1E0000D81F00009C
:102A4C00CE1E00005A1F0000F01E0000CE1E00001B
:102A5C00601F0000741F0000202000001A1F0000DF
:102A6C006E66636135383520763100006E666361C1
:102A7C0035383520626F6F740000000009022000A9
:102A8C00010100A0320904000002FFFFFF0307054B
:102A9C008102400001070502024000011201000200
:102AAC0000000040091235D00700010203010000AC
:102ABC0038040B0238049302380410039006700398
:102ACC00001931475A6A757D7F7D756A5A473119ED
:102ADC0000E7CFB9A6968B8381838B96A6B9CFE7F7
:102AEC0001000001000101000001010001000001D2
:102AFC0000010100010000010100000100010100C2
:102B0C0000010100010000010100000100010100B1
:102B1C0001000001000101000001010001000001A1
:102B2C000001010001000001010000010001010091
:102B3C000100000100010100000101000100000181
:102B4C000100000100010100000101000100000171
:102B5C000001010001000001010000010001010061
:102B6C000001010001000001010000010001010051
:102B7C000100000100010100000101000100000141
:102B8C000100000100010100000101000100000131
:102B9C000001010001000001010000010001010021
:102BAC000100000100010100000101000100000111
:102BBC000001010001000001010000010001010001
:102BCC0000010100010000010100000100010100F1
:102BDC0001000001000101000001010001000001E1
:102BEC0000010000A82A00001200000000020000F2
:102BFC00882A00002000000000030000382A000092
:102C0C000400000001030904242A00001000000045
:102C1C0002030904182A00000A0000000303090437
:102C2C000C2A000008000000000102020303030349
:102C3C000404040404040404050505050505050540
:102C4C000505050505050505060606060606060620
:102C5C000606060606060606060606060606060608
:102C6C0006060606060606060707070707070707F0
:102C7C0007070707070707070707070707070707D8
:102C8C0007070707070707070707070707070707C8
:102C9C0007070707070707070707070707070707B8
:102CAC0007070707070707070808080808080808A0
:102CBC000808080808080808080808080808080888
:102CCC000808080808080808080808080808080878
:102CDC000808080808080808080808080808080868
:102CEC000808080808080808080808080808080858
:102CFC000808080808080808080808080808080848
:102D0C000808080808080808080808080808080837
:102D1C000808080808080808080808080808080827
:082D2C0008080808080808085F
:0C2D340000000000010201260000000069
:00000001FF
