:100000006F10F026000000001E1B00001E1B0000E9
:10001000A9BDF9F31E1B0000000000000000000055
:100020001E1B00001E1B000000000000000000005E
:100030001E1B0000000000001E1B0000000000004E
:100040001E1B00001E1B0000EC2100001E1B0000F8
:100050001E1B00001E1B0000201B000000000000F3
:100060001E1B00001E1B00001E1B00001E1B0000AC
:100070001E1B00001E1B00001E1B00001E1B00009C
:100080001E1B00001E1B00001E1B00001E1B00008C
:10009000780200201E1B00001E1B00001E1B00001B
:1000A000011126CAB7741F0022CC4AC84EC606CE1C
:1000B0001304F5FF0D498549938404BC635904007A
:1000C000F2406244D2444249B24905618280B3673A
:1000D000240391C7638937016146814519A0014610
:1000E000E145014521A0014681456145972000E099
:1000F000E78080992685971000E0E780A0470146B9
:1001000081450145972000E0E780009811C42685CD
:10011000971000E0E78000467D144DB7894763885B
:10012000F51C828003C721C3854763E2E70803C744
:1001300021C3B3078B0083C7070029E3A388F1C25B
:1001400083C721C3850793F7F70F2389F1C203C73C
:1001500021C389476310F70203C711C383C701C3D3
:10016000A207D98F2397F1C203D7E1C29307E01FFB
:1001700063E9E7000504E34754FB21A82388F1C2A3
:10018000C1B7971000E0E7806068B7270020239E82
:1001900007F6B250225492540259F249624AD24AA6
:1001A000424BB24B224C924C024D4561828083D728
:1001B000CBF795C32254B25092540259F249624A85
:1001C000D24A424BB24B224C924C024D456117131E
:1001D00000E06700A36383D7E1C203D7C1C2998F50
:1001E00033878A403E8993160701C207C183C182C3
:1001F00063F3F6003A8903D5C1C2420913590901D4
:100200000905B3058B004A866295972000E0E780D8
:1002100000E883D7C1C24A94CA97C207C183239614
:10022000F1C203D7C1C283D7E1C2E366F7F483D733
:10023000E1C203D7E1C2239EFBF69147E31CF7F628
:1002400083574C0003572C00C207D98F3707000192
:100250001307271AE390E7F6B7E700E037074000F7
:1002600023A0E718B717004003D7A701C1669386FC
:10027000F6F3758F239DE700B78700401947238069
:10028000E700238007001305C026971000E0E780F1
:10029000602E094531350966B785070013060650FB
:1002A0009385850837050020972000E0E78020DE51
:1002B0001167B70700201307575037250020239AEE
:1002C000E7101306005681451305054F972000E0FF
:1002D000E780C0DAB7310020938181CEB7220020B9
:1002E0009382228C7390123473002030E1B57971BF
:1002F0005EC6B72B002022D426D24ECE52CC56CA90
:100300005AC862C466C26AC006D64AD0328BB68A60
:100310000144138CCBF785B55D713AD437E70040C3
:100320003ED28357470022DE36D6C20786C696C421
:100330009AC29EC02ADC2EDA32D842D046CE72CC87
:1003400076CA7AC87EC6C1832312F70003C7E1C10B
:1003500085466314D70E13F7870029C303D6C1C19E
:1003600003D7A1C1637CE60237E5004015469385BB
:100370000155310503D7C1C19308170006072E9711
:1003800003570700239E11C12310E50083D8C1C184
:1003900003D7A1C163F4E8007D1669FE13F71700C7
:1003A00025C737E700408346070093F6E60F230092
:1003B000D70083C681C1ADCE23A401C2239201C25E
:1003C00003C671C0B7E600401376F60FA380C600DF
:1003D0008946238FD1C08346070093E68601230018
:1003E000D70013F7270019C7971000E0E780803C7B
:1003F000954709A813F7070125CF971000E0E7807C
:10040000603B8D47238FF1C07254B640A64216431D
:1004100086436255D2554256B256225792570258D9
:10042000F248624ED24E424FB24F616173002030AB
:10043000B7E70040A380070065BF8946631AD70469
:1004400013F7470059DFB7E500409546B10513861D
:10045000015503D741C2FD1613081700239201C3AB
:1004600003D805000607329723100701FDF295BF58
:1004700093F70702D1DB0547A38BE1C0971000E09B
:10048000E780403383C761C093B7170091079DBFD2
:1004900099478DBFB71700403717004003C5770550
:1004A000B71600408348B7053717004083C5860557
:1004B0000348970503C67705378E090037130040B8
:1004C0001376E60FA38BC704C147238CF60493076A
:1004D0003004A30CF704371700408347A705130720
:1004E000A7051375F50F93F7D70F2300F700834780
:1004F000070093F8F80F93F5F50F93F7F70C230027
:10050000F7001378F80F894E814737FF00E0130E8C
:100510000E581303C30585438346070093E6160070
:100520002300D70083268F00B38FC601B3B6DF0048
:100530003306D0408346070093F6160891CE8326F3
:100540008F00B382F641B3B65600B306D64063457A
:10055000D000EDF2E38002FE83560300B69763926B
:100560007E0A93D6170013970601B717004041463D
:100570004183938787056398C50839462380C70060
:10058000B7170040A38D1705B7170040A38C0705C8
:10059000B7170040A38BA70483D741C1C206C1820D
:1005A0003385D74063F4E7003385F6409306803EF9
:1005B0003305D5023355F50263FAE70451466377F4
:1005C000A6041307C03F0145B387E702B3D7D7029C
:1005D000139707014183938701149388E70001462D
:1005E0009386011403D827008907239F07FF4296AB
:1005F000E39AF8FE2397E60032970D83239AE1C031
:100600008280854E11BF2380B7009DBF13355500F2
:1006100013451500E371F7FCFD171397070141839C
:100620005DBFAA86AA951965130535366393B60092
:10063000828003C8060085063348A8001378F80FA7
:10064000131748001377F70FB34707011396870076
:100650008E073D8E33470701935785003D8E1183EA
:10066000398E131506014181D1B7AA86B695196551
:10067000939805011305353693D808019397060121
:10068000C183135885006397F8002380A500A380D9
:100690000501828083C706008506A98FE207E187EE
:1006A00013974700B98F13F6F70F918313F7F700ED
:1006B000931736002206B98F33660601B18F139562
:1006C0000701418165BF096781471307475D63C41F
:1006D000C70005458280B306F50003C80600B3864F
:1006E000F50083C606003A98034808006314D80052
:1006F0008507F1BF01458280096781471307475D80
:1007000063C3C7008280B306F50083C60600338842
:10071000F5008507BA9683C606002300D800CDB73A
:10072000011122CC06CE26CA4AC84EC652C41307AF
:10073000000A2A846305E510138701C4230007001B
:1007400023000710230007202300073013070005AC
:100750006309E512B287634FA704130760026308B9
:10076000E51013070003630CE52209476305E51C48
:1007700081448DA055473357D700058B75DB9376A1
:10078000F40F1387010409452300D7006391A712D2
:10079000930700021385010493850115A300F70058
:1007A000A13F1167B7E70040130727362398E700FA
:1007B000C1440DA01307000E6309E5146348A704A4
:1007C000130720056305E50A9306D5F61147814412
:1007D000E372D7FA85472382F1C02383F1C09307E0
:1007E0002005630CF41E63C9871C9307600263062F
:1007F000F41E1395040141818D4763E5A71E238CE8
:1008000001C01947238FE1C08547D1A49307200F6A
:10081000E310F5F603C70500938701042380E70082
:1008200003C71500138501048945A380E700353D02
:10083000114693850115138501047D3DB5A003C7BD
:1008400051C08545130707FA2380E10403C751C04F
:100850001385010413471700A382E1C039351385BE
:1008600001040D4693850115413DE144A5B7238060
:10087000810413079015B7E700402398E7009D44D3
:1008800091BF2390A104894513850104F93B1146CA
:10089000938501151385010485350967B7E7004085
:1008A0001307171B2398E7009304000225B793074B
:1008B0000007A300F7002303070013860104814704
:1008C0001145B386F50083C6060085070506A3001B
:1008D000D60003486700B3C606012303D700E3929E
:1008E000A7FE9D4513850104493313850104254660
:1008F0009385011511351167B7E7004013072736B7
:100900002398E70093048004F1B5E1779387070EFD
:100910002390F1040947A382E1C0894513850104AE
:10092000A93311469385011513850104F133B7E707
:1009300000407D5785BF83C651C02380D10483C644
:1009400051C093C61600A382D1C00147938601040B
:10095000634DF702938437008507139907011359F4
:100960000901CA85138501040933130629004206CB
:1009700041829385011513850104BD3BB7E7004013
:100980007D578E042398E700B1B505073386E5004F
:100990000345F6FF3386E6002300A60055BF2380FB
:1009A000A10493860104014789C56354C00003C7AD
:1009B0000500A380E60095B71306D4F69147E3EA55
:1009C000C7E2D547B3D7C700858BE38407E203C6E8
:1009D000110493070002E31EF6E0238201C0238383
:1009E00001C001BD971000E0E780A0F4E31E05E020
:1009F000971000E0E780E0E59547E317F5E083A472
:100A000081C2A54993071010B3F43403E9E003AAA7
:100A100081C2B3593A0393850115138501251396B5
:100A2000090141824D3189475DC193072005630B60
:100A3000F40863CF8702930760026305F408CE854C
:100A400013850125F93E9307301051E183C7012535
:100A50001307200F138601256394E7080946938541
:100A600001251305200F6D3993170501C18385A05A
:100A70001307D4F69147E3E4E7FCD547B3D7E70083
:100A8000858BD5DF03C7110493070002E319F7FA3A
:100A90001307C00293071010637B470313870125D8
:100AA0008346170083470700B58F83462700B58F1D
:100AB0008346370003474700B58FE309F7F89307EC
:100AC000201031A0C547E3E347F993071010F24027
:100AD0006244D2444249B249224A3E85056182803D
:100AE00013F70701814765D709476306E400130739
:100AF000000AE31EE4FC03C701C4938701C41DC3BD
:100B000003C7071011CF03C707200DCF03C7073056
:100B10009304003001CB014681451305000AA1B7BB
:100B2000930400100147930500103305E6000345C8
:100B30000500B3069700BE962380A6000507E316BE
:100B4000B7FED1BF93040020F1BFB727002003D721
:100B5000C7F719C3239E07F6828083D721C289EF86
:100B600009654111A9451305455706C6971000E0D0
:100B7000E780A065B2404101171300E06700835A87
:100B80001971A2DC86DEA6DACAD8CED6D2D4D6D2E5
:100B9000DAD0DECEE2CCE6CAEAC8EEC63284631E04
:100BA000060E83C741C3138B41C3638B070EAA8410
:100BB00078088147930640082300F700910793F7D0
:100BC000F70F0507E39AD7FE930730F8A30EF1025B
:100BD000854593070006138501042380F1047134D1
:100BE0000D46938501151385010439366177B7E702
:100BF00000401307476C2398E7006145971000E019
:100C0000E78020D3938D0104631B0510971000E04B
:100C1000E78020C495476314F51083A781C2254758
:100C2000B3F7E702639D070E83A781C2214793872D
:100C300067FA6366F70E294693850115138501252A
:100C4000593471CDA94513850125E13A69E9014778
:100C50009387C1C013850125A146B305A70083C5AD
:100C600005003306F70005072300B600E317D7FE9B
:100C700003C7170091466310D70283CC2700639CFB
:100C8000EC0083C6370009476397E60083C6670018
:100C900045476389E60A094561A0137406022DC021
:100CA000014681451305000EA53C39E983D721C2D1
:100CB000F5FF83A581C2A547B3D5F50213850125AC
:100CC00037345F001304047037FB00E0B72A0020BC
:100CD000C205C181971000E0E780204FB7F700E020
:100CE00084472694B3349400B30B904003278B00C1
:100CF000B3078740B337F700B387FB4063C5071AD4
:100D0000F6506654D6544659B659265A965A065B3A
:100D1000F64B664CD64C464DB64D09618280054572
:100D20006654F650D6544659B659265A965A065B1A
:100D3000F64B664CD64C464DB64D0961171300E094
:100D40006700C34C130710FA2302E1005800A30206
:100D500091003A868146050663C3960A13851400FE
:100D6000B14605056315D50A81462146B385D700EE
:100D700083C5050085060507A305B700E398C6FEF1
:100D800083D721C2F5FFD5454800B7EB0040617C11
:100D9000971000E0E7806043C10B971000E0E78008
:100DA0006038130C4C6C7C08A29703CB07009307A8
:100DB0003008E68463F86701930770F8B3846741ED
:100DC00093F4F40F930700038945138501042380EE
:100DD000FD00A3806D01EFF05F89138501041146CA
:100DE00093850115EFF05F911305000223908B01AD
:100DF000971000E0E780E0B305C10D4515B7B305D6
:100E0000DB0083C505008506A300B600A9B733063D
:100E1000A70023000600B1B7971000E0E78060A3A9
:100E20009547E31CF5FC83A781C22547B3F7E7028A
:100E3000E9F783A781C221479387E7F5E36FF7FAC4
:100E400049469385011513850125EFF0DF8755D5B8
:100E5000C94513850125EFF0CFFC45F1930720FA32
:100E6000414693850125130561002302F100A30289
:100E70006101971000E0E780802183D721C2F5FF50
:100E80009395240089054800971000E0E780E0333F
:100E9000971000E0E7800029050493072002E3147F
:100EA000F4F00145B5BD971000E0E780A02783D797
:100EB000CAF7E38D07E203D6CAF7B725002093856A
:100EC000E5F70945EFF0DF8535E1138401C49304AC
:100ED0000440834704008DC383D721C2F5FF2285D8
:100EE00093050010971000E0E780202E13040410F3
:100EF000230004F0E31F94FC83D721C2F5FF83A5F0
:100F000081C2A54713850125B3D5F50237345F00AB
:100F100013040470C205C181971000E0E780E02A45
:100F2000B7F700E084472694B3349400239E0AF672
:100F300065BB1D71CAC8D6C286CEA2CCA6CACEC613
:100F4000D2C4DAC05EDE62DC66DA6AD86ED6B71763
:100F5000004037F300E03717004003298300B7163D
:100F6000004083C577058348B7053717004003C89D
:100F700086050345970503C67705814A93F5F50F66
:100F80001376E60FA38BC704B947238CF6048D476D
:100F9000A30CF704B717004003C7A7059387A7055D
:100FA00093F8F80F1377D70F2380E70003C70700E4
:100FB0001378F80F1375F50F136707032380E70005
:100FC00003C7070037FE00E0136717002380E70020
:100FD000032683003787090013070758B306E60086
:100FE00033B6C6003306C04003C70700058B01EBCC
:100FF000B71700409387C70583D7070031A8032799
:101000008E003303D740333767003307E64063452C
:10101000E00079FBE30A03FCB7170040A38D170536
:10102000B7170040238C0705B7170040A38CA7040F
:10103000B7170040A38BB70437E700405C4B9966B5
:10104000CE07CD83D58F896B5CCB814481491384D6
:101050000125938B4B5CD53C971000E0E780800C1A
:10106000B7F700E09C47B386274133B7D700B307F3
:101070005041998F6344F00091EF89CEF93CB7F766
:1010800000E083AA87003729B8031309096056993D
:10109000B33A5901B7F700E09C47B386974033B79E
:1010A000D700B3073041998F6344F000CDF7C5D620
:1010B000970000E0E780E076B7E4004083C70400D3
:1010C00037C504001305052C93F7B70F2380F400F0
:1010D000970000E0E780004A83C7040037850900D5
:1010E0001305055893E747002380F4000D6D970022
:1010F00000E0E78020489549C54D130D0D070146D6
:10110000814513052005EFF0AFE142054181631AE7
:10111000052483A781C263EDFD0081446A85FD1922
:10112000970000E0E7800045E39B09FC6396042EEE
:1011300015651305454C83D90125970000E0E7802C
:1011400060430946814513053009EFF06FDDAA8D34
:101150006306052C05460C0813050003230801004F
:10116000EFF00FDC6319052403A781C29307100A6F
:1011700063F3E72483C801250345240003481400D2
:1011800003473400B3C7A800B347F80093C78708E4
:101190006313F722834544000346540083466400EA
:1011A00003477400B3C7C50003438400B58FB98FEC
:1011B0006313F320938741C323801701A3800701A2
:1011C0002381A700A381B7002382C700A382D70091
:1011D0002383E700814D1D4D937CFD0F930750FA4B
:1011E0006A86938541C3130521012308F100A308F2
:1011F0009101971000E0E78080E9180893870C01BF
:10120000BA9793F6F90F2389D7FE93870C01BA9703
:1012100013D68940A389C7FE93870C0193F4FD0F71
:10122000BA9793855C00238A97FE83D721C2F5FF86
:10123000080836C6971000E0E78020F9971000E014
:10124000E78040EE6E86CE856A851D3A014681456F
:1012500013050005EFF0CFCCB7E70040A3800700EF
:10126000B7E70040238007004146B7E700E0FD886C
:1012700023A2C7189104E147B246268663F397007C
:101280006146938741C383C7070095456145B3878E
:10129000B7021376F60F138D41C3FD8B9107BE8500
:1012A0006373F500E14593F7F6019107E14693F585
:1012B000F50F3E8563F3F60061451375F50397005E
:1012C00000E0E780607C971000E0E780A081A14605
:1012D000E68763F39601A147B7190040B7E416000B
:1012E00093FDF70F014779469389C90C854C938488
:1012F00004A0B307ED0083C707003AC693D53700B3
:101300008D89B385C5029D8B8607DE9703D50700BF
:101310009385A505C205C181970000E0E780403FA5
:10132000268523A09901970000E0E780A02432479A
:10133000794605079377F70FE3EDB7FB0146814543
:101340000145970000E0E7802074B7F700E083A92B
:101350008700B7143D019384040CCE94B3B93401D3
:10136000DDB90146814513056002EFF06FBB9314B0
:101370000501C180E38F04D855B3A381C4009385D0
:1013800001251D46130550092382D400A382E400E1
:101390002383F400EFF0CFB8E31E05E2834D040091
:1013A0001DBD23AAB1C21D46A28513053009EFF069
:1013B0002FB7114D01AA0547B7E70040A3800700EA
:1013C000B7E7004023800700C146B7E700E023A24B
:1013D000D71825DF970000E0E780C070F1451305BE
:1013E000C03D970000E0E780A032B7170040938728
:1013F000C70C05473715130098C3130505B09700B0
:1014000000E0E78020179305400213057052970013
:1014100000E0E780E02F15BF014779BF034D0400CE
:1014200013068008034714008347240083463400D2
:1014300083A50125E317CDF6938441C31D46A285FC
:10144000130530092380E400A380F4002381D40035
:10145000EFF00FAD2DF10946814513055009EFF06E
:101460002FAC31F9034604008346140003472400DF
:1014700083473400E313A6F11D4693850125130528
:101480005009A381D4002382E400A382F400EFF08A
:101490002FA915F10946814513057009EFF04FA8F2
:1014A000AA8D11F983D701251D4693850125239324
:1014B000F4008357240013057009294D2394F40088
:1014C000EFF00FA6E31A05D0834D040031B30000FE
:1014D000B7F700E09C4737F700E03E951C47898F3F
:1014E000E3CE07FE8280B72700209387C717054702
:1014F00023AAE70C378700408346C70093E606041B
:101500002306D700FD5623ACD70C8346D70093E6BD
:101510008600A306D700B72600209386C618231896
:10152000D700B7260020378700409386C61C231AB1
:10153000D700B7260020378700409386C620231C9B
:10154000D70037870040C9462301D70237870040BC
:1015500089462303D702A380070E3787004023055F
:1015600007022381070E8280B71700409387870DFB
:101570001307000498C3B71700409387C70C98C39C
:101580000100010001000100010001000100010053
:101590000100010001000100010001000100010043
:1015A0000100010001000100010001000100010033
:1015B0000100010001000100010001000100010023
:1015C0000100010001000100010001000100010013
:1015D0008280B71700409387870D1307000498C3D4
:1015E00001000100010001000100010001000100F3
:1015F0000100010001000100B71700409387C70CEC
:1016000098C3010001000100010001000100010078
:1016100001000100010001000100010001000100C2
:1016200001000100010001000100010001000100B2
:10163000010001000100010001008280411122C46B
:1016400026C206C62A84A14493178401E18763DD7C
:10165000070041370604FD141374F40FF5F4B2408B
:1016600022449244410182800137EDB709ED3D6586
:101670001305053C3385A502B71700409387C70CB7
:10168000054798C3B1B5B7A7070093870712B3D72B
:10169000A702011122CC06CE26CA4AC84EC652C4A1
:1016A00056C25AC03E84C207C183B385A50291E3E6
:1016B000054442049307703E4180854463F6B700B9
:1016C0009304803EB3D495029307E003371A004099
:1016D000B71900400149130A8A0D854A054B9389C1
:1016E000C90C3304F402228523206A01D5332285F4
:1016F00023A059010509E93BE39724FFF240624426
:10170000D2444249B249224A924A024B0561828040
:10171000B7E70040A10783D70700C207C18323A40E
:10172000F1C283A781C203D741C2BD079183C2071B
:10173000C183637AF702998FC207B7E50040C1837E
:101740008146B1051386015503D741C285061308AA
:101750001700239201C303D8050006073297231010
:101760000701E3C3F6FE8280239701C2239601C2DC
:10177000238901C2A38801C2238801C28280B7E7FE
:101780000040130740022380E700D84BB9669386D8
:10179000F67F758FD8CBD84B13670762D8CBB7E7E6
:1017A00000E0414723A2E72823A2E710828001112D
:1017B00026CA4AC84EC6896552C406CE22CC938535
:1017C000257193840155138921559389012503C7F8
:1017D000E1C1894763EEE7001384F5FF5DE0F24065
:1017E00022856244D2444249B249224A056182803C
:1017F00083C781C189E703C4E1C179DCCDB737E78D
:1018000000408347070093F7F70E2300F70003A576
:1018100081C203C661C142054181A147E3FDA7FC26
:1018200001471388011593080010254EA14E9356C9
:1018300046008606B3879600137F860083D707008D
:101840001373F60063070F00CA9683D60600C2061C
:10185000D58FB3D76700B306370193F7F71F2380FF
:10186000F600B3060701A1832380F60005072506CD
:10187000E30317F9B307C703B307F540E3E9FEFA3B
:101880009DBF096513058583A131A28589B78D4662
:1018900093870155014763FCA604AA8581469D4EA6
:1018A000130F8010138801159388010463E2BE0AA8
:1018B00085C9130600106305C70213870115369703
:1018C000034707009385010413961600AE9683C65E
:1018D00006003337E00022073E96558F2310E600BE
:1018E00013573500A5463307D7021D892A97B7E657
:1018F0000040A380060037E600408346060093F6CA
:10190000E60E2300D6000546238CC1C0238B01C000
:10191000A38B01C013066002A383C1C01316070185
:101920004182B7E600402394C6002546930687000F
:10193000B3C6C602130680046368E60437E60040B7
:10194000014731066399E60893970601C18391A880
:10195000130E8700E306EEF933060701034606007F
:10196000B30F170183CF0F003336C00013131700D6
:1019700022063E933366F6012310C3000507E31DDC
:10198000C7FD8506E1151DB737E70040138607013F
:10199000310783D5070089072310B700E31BF6FE44
:1019A000A147239EF1C0239DD1C00547238FE1C0ED
:1019B000A546B7E700402392D700B7E7004037E7D6
:1019C0000040A380D70083470700014593E79700B5
:1019D0002300F700828083D50700050789072310BD
:1019E000B6008DB7411126C24AC006C622C42E8950
:1019F000B28473240030F327003093F777F77390A5
:101A000007302D394A851D3926850D390145218834
:101A1000353119C4F327003093E7870873900730F6
:101A20002244B7170040B240924402499387C70C42
:101A30001307000498C33D651305053C410149BCEB
:101A4000B71700409387470D98431367170098C353
:101A5000B71700409387070C98431367170098C384
:101A6000B71700409387C70C054798C3828097013A
:101A700000209381E1DB17E101201301A1581385B8
:101A8000C1C0970500209385E57D6377B5002320CD
:101A900005001105E36DB5FE1305000A97E5FF1F6C
:101AA00093854556170600201306C69863FAC500AD
:101AB0008322050023A0550011059105E3EAC5FE28
:101AC000171500001305C5C5938541C01386C1C015
:101AD000638AC5008322050023A0550011059105E6
:101AE000E3EAC5FE93070000FD42739002BC8962E1
:101AF0009382828873A0023097E2FFFF9382825024
:101B000093E2320073905230B7F700E0154798C364
:101B100089679387071F739017347300203001A0E3
:101B20005D713ED0B7870040990783D7070022DE5A
:101B30003AD286C696C49AC29EC026DC2ADA2ED82D
:101B400032D636D442CE46CC4ACA4EC872C676C4C5
:101B50007AC27EC013F72700378400406302074231
:101B600013D7C74093D587400D8B8946BD89630342
:101B7000D7048D466308D71C630D0712B787004052
:101B800009472383E7007254B640A64216438643B2
:101B9000E2545255C2553256A256125782577248D5
:101BA000E2485249C249324EA24E124F824F616101
:101BB000730020309DC9E343B7FCB787004093878B
:101BC0002702139725003E978347070093C7070412
:101BD000F19B93E727002300F700B72700209387A6
:101BE000C717AE972380070E51BF372400209307F5
:101BF000C41783D727001304C41799E7B787004099
:101C0000130700F82381E7028329C400A301040E0F
:101C1000638D09048354240093070004268963F428
:101C2000970013090004420913590901B3842441A0
:101C300037250020C2044A86CE851305C518C18009
:101C40006D2623119400814799C0B38729015CC494
:101C5000B787004023802703B787004003C72702C8
:101C6000134707042381E70211BF8347140093F74A
:101C7000070699CF83572400E38207F00347040047
:101C80008547E30DF7EEB787004023800702E9B7E9
:101C9000034704009547E313F7EEB786004003C7F8
:101CA00036008347940013770708D98FA381F60085
:101CB000F1B58346840093F6F60FB9E11397170147
:101CC000E35E07EAB72700209387C71703D72700EB
:101CD0000DE303871700634507000547A381E70E5F
:101CE000B78700402380070213070005B78700402D
:101CF00095BFB787004003C72702134707F89DB772
:101D00001146939725006354B60013070003BA9752
:101D10003787004013072702BA9703C70700372504
:101D200000201306C517134707F82380E700939791
:101D30006500C1073E961305C51797E0FF1FE780B2
:101D400020342DBD83477400E207E187E3D807E222
:101D5000B78700401307A0FDB72E00202381E702BC
:101D60009387CE1703D7070183D8270103D86701CC
:101D7000931687002183558F83D6470103C507013A
:101D8000239EEE161397060133671701239107016F
:101D9000D8C39378050603C317014286638C0800F5
:101DA000811893F8080C63980804B787004013075C
:101DB000F0FC4DBDAD48E3EA68FE096E93182300C0
:101DC000130E4E54F29883A80800828889668965AC
:101DD0009386466D9385C57183A806006399E804D0
:101DE000D842938ECE17D8C703C786006353E80046
:101DF00042872391EE00131785016187635207160E
:101E0000130700046354C70013060004378700401B
:101E10002300C70219476300E31403D72700118F7B
:101E20002391E700B78700401307000425BDB106E2
:101E3000E394B6FA9DBFA384E70075BF03C787008C
:101E40002388E7000547E37807FB2391E70065B7A0
:101E50002384E7000547A385E700378700408346D2
:101E6000670293F6F6032303D702378700408346C1
:101E7000A70293F6F6032305D702B5BF1378F50141
:101E80008948E31418F31377F70F05F3E34FB8F01D
:101E900093F6060899DA138745030A073E97144319
:101EA0007D57E394E6F08A0537870040BA95238191
:101EB000050391B71378F5018948E31818EF1377F4
:101EC000F70FE31407EEE348B8F293F60608E38E43
:101ED00006EC138745030A073E9714437D57E396A4
:101EE000E6EC37870040130727028A05BA9503C737
:101EF0000500136737002380E500F5BD2388070040
:101F0000E35B00EF0546C5BD239807001377F50195
:101F100015CF8948E31B17E9E349B7E893F60608AC
:101F2000E38506E8138745030A073E9714437D5768
:101F3000E39DE6E68A05378700402E978346270211
:101F40008D8AF51693B616002388D7000947E35407
:101F500007EB09464DB5B78700402381070239B921
:101F6000B787004093872702130700F919E63787E0
:101F7000004023000702130700042380E700FDBE92
:101F800013F7170009CFB727002023A20718A301D2
:101F90000400EFF04FD585472303F400EDB613F7A7
:101FA000470093F7F70F6DDB91472303F400130508
:101FB000C026EFF0EFD183465400372700201307E7
:101FC000C717918A8347A70091C693E72700230587
:101FD000F70055BEF59BE5BF2A96AA876393C70015
:101FE00082802380B7008507D5BF81476313F60041
:101FF00082803387F500834607003307F5008507A5
:102000002300D700E5B7411122C43724002006C6BB
:1020100026C29307C41783C7370EB1EF1304C41742
:102020008347140EA9EB83572400B1E7B78700401C
:1020300083C77700E207E18763CF0702AE8491CDC3
:1020400037270020B78700409306C71C2E86239AA7
:10205000D700AA851305C71C493FB78700402382D4
:102060009702B787004003C76702719B2383E7028B
:102070008547A300F40EB24022449244410182807D
:10208000411126C283D721C206C622C44AC0D1C785
:10209000B72700209387C71783C7170E858BB5EF27
:1020A00083D701C295E703D721C2854763F2E702D0
:1020B000894513850135813F89472390F1C203D7B4
:1020C00021C2631CF704239101C2239001C2B1A075
:1020D00083D721C203D701C2998F3E89C207C1832A
:1020E000130700046374F7001309000483D701C2C7
:1020F000420913590901138501353E95CA852137D7
:1021000083D701C2CA97C207C1832390F1C203D704
:1021100001C283D721C2E378F7FAB2402244924445
:102120000249410182809307E01F63EEB70241112B
:1021300026C283D721C206C622C48DE32398B134B8
:102140002E8491C52E86AA8513852135793D0904F3
:102150004204239001C24180239181C2B2402244B3
:1021600092444101828082800111930730FA06CEA9
:102170002306F100A306A10083D721C2F5FF680062
:1021800089455537F53DF24005618280B71700401B
:1021900093870704930570052380B700130680FA20
:1021A0002380C70001000100372700408346578085
:1021B00093F6F60EA302D780372700408546A30387
:1021C000D78023800700010001002380B70023800F
:1021D000C700010001003717004093065034231454
:1021E000D7002380070001000100828073002030A7
:1021F000011106CE22CC26CA4AC84EC652C4B7190F
:102200000040693783A7490D3719004013070004C0
:1022100093E7070423AAF90C8327090CB71400409D
:102220003784004093E707042320F90CB7170040D8
:102230009387C70C98C3EFF0BF80014681450145E5
:10224000EFF04FFAEFF0CFFF930580071305B020B2
:10225000EFF0CFC137951C0013050508EFF04FA72D
:102260009305800713050031EFF04FC037951C0030
:1022700013050508EFF0CFA5EFF00FCF83D7A4012A
:102280001305C02693E7070C239DF400994723000C
:10229000F40023000400EFF0AFA39D472301F400F6
:1022A000A3010400930790022300F400FD572303C9
:1022B000F400EFF04FA3930710F837074000A30096
:1022C000F400B7E700E023A0E7100146E14501452F
:1022D000EFF04FF10965B14513050558A9354D33A8
:1022E000154597E0FF1FE780E0D181456145014634
:1022F000EFF04FEFB71700409387470B9843371421
:1023000000401304A4051377F7F798C3B7170040EC
:102310009387070A98431367070898C3B7170040C5
:102320009387870B1307000898C3B7170040D84F4F
:1023300013670708D8CF83A6490D3707FDFF13079A
:10234000F7CFF98E23AAD90CB71600409386060D55
:102350009042798E90C28326090C758F2320E90C58
:10236000D84FB7060003558FD8CF83D7A401A166F5
:1023700093E70730239DF400B717004003D7870188
:10238000558F239CE700EFF08FBF3775BE00130514
:1023900005E0EFF0EF93B71700403717004003C98F
:1023A0007705B7160040034AB7053717004083C4C6
:1023B00086058349970503C6770537355F00130502
:1023C00005701376E60FA38BC704C147238CF60470
:1023D00093073004A30CF704834704001379F90F23
:1023E000137AFA0F93F7D70F2300F4008347040002
:1023F00093F4F40F93F9F90F93F7F70C2300F4001B
:10240000EFF00F8D4166B788090037180040294565
:1024100081477D16814637F300E0938808581308FA
:10242000C80503470400136717002300E4000327CF
:102430008300330E17013337EE00B305E040034746
:1024400004001377170811CF03278300B30EC74189
:102450003337D7013387E5406345E0006DF3E38010
:102460000EFE0357080042074183BA856373D70005
:10247000B68593960501C182BA856373E600B2857D
:10248000139605017D154182BA9741FD371700402B
:10249000A30D4705C145371700401307870563970C
:1024A000B406B9452300B700B296958F37170040A0
:1024B0008D83A30C3705C20737170040C183A30BD8
:1024C0002705239AF1C0138701142310F700231165
:1024D000F7002312F7002313F7002314F700231546
:1024E000F7002316F7002317F700B7E70040A38093
:1024F0000700B7E70040238007004147B7E700E047
:1025000023A2E71897F0FF1FE780E09823009700C9
:1025100061BF0000080335003800350000000000EE
:102520000A034E0046004300410000001003630010
:10253000680033003200660075006E000000000085
:1025400004030904081F00007C1E0000AA1D0000EF
:10255000B41E0000AA1D0000361E0000CC1D0000A5
:10256000AA1D00003C1E0000501E0000FC1E0000C2
:10257000F61D00006E666361353835207631000047
:102580006E66636135383520626F6F74000000003D
:1025900009022000010100A0320904000002FFFF2F
:1025A000FF03070581024000010705020240000108
:1025B0001201000200000040091235D0070001029C
:1025C00003010000060126014A018801B8010B023F
:1025D000930210030100000100010100000101004D
:1025E00001000001000101000100000101000001E3
:1025F00000010100000101000100000101000001D3
:1026000000010100010000010001010000010100C2
:1026100001000001000101000100000101000001B2
:1026200000010100010000010001010000010100A2
:102630000100000101000001000101000001010092
:102640000100000100010100010000010100000182
:102650000001010000010100010000010100000172
:102660000001010001000001000101000001010062
:102670000100000101000001000101000001010052
:102680000100000100010100010000010100000142
:102690000001010001000001000101000001010032
:1026A0000100000100010100010000010100000122
:1026B0000001010000010100010000010100000112
:1026C0000001010001000001000101000001010002
:1026D0000100000100010000B02500001200000010
:1026E0000002000090250000200000000003000010
:1026F0004025000004000000010309042C2500000F
:102700001000000002030904202500000A00000058
:0C27100003030904142500000800000069
:08271C0001020126000000008B
:00000001FF
